{
  "address": "0x80cB49702A46F9605F6bdE9bA91a7AcDB1de52Ba",
  "abi": [
    {
      "inputs": [
        {
          "internalType": "address",
          "name": "_executor",
          "type": "address"
        }
      ],
      "stateMutability": "nonpayable",
      "type": "constructor"
    },
    {
      "inputs": [],
      "name": "WETH",
      "outputs": [
        {
          "internalType": "contract IWETH",
          "name": "",
          "type": "address"
        }
      ],
      "stateMutability": "view",
      "type": "function"
    },
    {
      "inputs": [
        {
          "internalType": "uint256",
          "name": "_amountIn",
          "type": "uint256"
        },
        {
          "internalType": "address[]",
          "name": "_targets",
          "type": "address[]"
        },
        {
          "internalType": "uint256[2][]",
          "name": "_amountsOut",
          "type": "uint256[2][]"
        }
      ],
      "name": "hi",
      "outputs": [],
      "stateMutability": "nonpayable",
      "type": "function"
    },
    {
      "inputs": [
        {
          "internalType": "uint256[]",
          "name": "_amountIn",
          "type": "uint256[]"
        },
        {
          "internalType": "address[][]",
          "name": "_targets",
          "type": "address[][]"
        },
        {
          "internalType": "uint256[2][][]",
          "name": "_amountsOut",
          "type": "uint256[2][][]"
        }
      ],
      "name": "hi2",
      "outputs": [],
      "stateMutability": "nonpayable",
      "type": "function"
    },
    {
      "inputs": [
        {
          "internalType": "uint256",
          "name": "_amountIn",
          "type": "uint256"
        },
        {
          "internalType": "address[]",
          "name": "_targets",
          "type": "address[]"
        },
        {
          "internalType": "bytes[]",
          "name": "_payloads",
          "type": "bytes[]"
        }
      ],
      "name": "hp",
      "outputs": [],
      "stateMutability": "nonpayable",
      "type": "function"
    },
    {
      "inputs": [
        {
          "internalType": "uint256[]",
          "name": "_amountIn",
          "type": "uint256[]"
        },
        {
          "internalType": "address[][]",
          "name": "_targets",
          "type": "address[][]"
        },
        {
          "internalType": "bytes[][]",
          "name": "_payloads",
          "type": "bytes[][]"
        }
      ],
      "name": "hp2",
      "outputs": [],
      "stateMutability": "nonpayable",
      "type": "function"
    },
    {
      "inputs": [
        {
          "internalType": "contract IERC20",
          "name": "token",
          "type": "address"
        },
        {
          "internalType": "address",
          "name": "_to",
          "type": "address"
        },
        {
          "internalType": "uint256",
          "name": "_amount",
          "type": "uint256"
        }
      ],
      "name": "s",
      "outputs": [],
      "stateMutability": "nonpayable",
      "type": "function"
    },
    {
      "inputs": [
        {
          "internalType": "address",
          "name": "_new",
          "type": "address"
        }
      ],
      "name": "setWeth",
      "outputs": [],
      "stateMutability": "nonpayable",
      "type": "function"
    }
  ],
  "transactionHash": "0x0a00bf953960497c5c2aaa6ec8fc49295fab889b4dd78d86d0b6739936795178",
  "args": [
    "0xF479cBA4257371790263Fe9d8F78D9C2c99f1837"
  ],
  "numDeployments": 1,
  "solcInputHash": "26ef9f1e7676be6df21c8af58b52076b",
  "bytecode": "0x60c0604052600080546001600160a01b031916730d500b1d8e8ef31e21c99d1db9a6444d3adf127017905534801561003657600080fd5b5060405161117a38038061117a8339810160408190526100559161006a565b336080526001600160a01b031660a05261009a565b60006020828403121561007c57600080fd5b81516001600160a01b038116811461009357600080fd5b9392505050565b60805160a05161109f6100db600039600081816102220152818161060a015281816106ca0152610b880152600081816101300152610583015261109f6000f3fe608060405234801561001057600080fd5b506004361061007d5760003560e01c8063b8d1452f1161005b578063b8d1452f146100d9578063c435e20a146100ec578063ea628049146100ff578063fd83c7df1461011257600080fd5b806340828698146100825780636bfa027d14610097578063ad5c4648146100aa575b600080fd5b610095610090366004610c55565b610125565b005b6100956100a5366004610ce2565b610217565b6000546100bd906001600160a01b031681565b6040516001600160a01b03909116815260200160405180910390f35b6100956100e7366004610d5c565b610578565b6100956100fa366004610d80565b6105ff565b61009561010d366004610e1a565b6106bf565b610095610120366004610d80565b610b7d565b336001600160a01b037f0000000000000000000000000000000000000000000000000000000000000000161461018f5760405162461bcd60e51b815260206004820152600a60248201526927b7363c9037bbb732b960b11b60448201526064015b60405180910390fd5b60405163a9059cbb60e01b81526001600160a01b0383811660048301526024820183905284169063a9059cbb90604401602060405180830381600087803b1580156101d957600080fd5b505af11580156101ed573d6000803e3d6000fd5b505050506040513d601f19601f820116820180604052508101906102119190610ec1565b50505050565b336001600160a01b037f0000000000000000000000000000000000000000000000000000000000000000161461025f5760405162461bcd60e51b815260040161018690610ee3565b600080546040516370a0823160e01b81523060048201526001600160a01b03909116906370a082319060240160206040518083038186803b1580156102a357600080fd5b505afa1580156102b7573d6000803e3d6000fd5b505050506040513d601f19601f820116820180604052508101906102db9190610f0a565b60008054919250906001600160a01b031663a9059cbb8787848161030157610301610f23565b90506020020160208101906103169190610d5c565b6040516001600160e01b031960e084901b1681526001600160a01b039091166004820152602481018a9052604401602060405180830381600087803b15801561035e57600080fd5b505af1158015610372573d6000803e3d6000fd5b505050506040513d601f19601f820116820180604052508101906103969190610ec1565b9050806103c95760405162461bcd60e51b81526020600482015260016024820152603360f91b6044820152606401610186565b60005b858110156104bb576000808888848181106103e9576103e9610f23565b90506020020160208101906103fe9190610d5c565b6001600160a01b031687878581811061041957610419610f23565b905060200281019061042b9190610f39565b604051610439929190610f80565b6000604051808303816000865af19150503d8060008114610476576040519150601f19603f3d011682016040523d82523d6000602084013e61047b565b606091505b5091509150816104b15760405162461bcd60e51b81526020600482015260016024820152601b60fa1b6044820152606401610186565b50506001016103cc565b50600080546040516370a0823160e01b81523060048201526001600160a01b03909116906370a082319060240160206040518083038186803b15801561050057600080fd5b505afa158015610514573d6000803e3d6000fd5b505050506040513d601f19601f820116820180604052508101906105389190610f0a565b905082811161056e5760405162461bcd60e51b815260206004820152600260248201526106e760f41b6044820152606401610186565b5050505050505050565b336001600160a01b037f000000000000000000000000000000000000000000000000000000000000000016146105dd5760405162461bcd60e51b815260206004820152600a60248201526927b7363c9037bbb732b960b11b6044820152606401610186565b600080546001600160a01b0319166001600160a01b0392909216919091179055565b336001600160a01b037f000000000000000000000000000000000000000000000000000000000000000016146106475760405162461bcd60e51b815260040161018690610ee3565b8460005b8181101561056e576106b788888381811061066857610668610f23565b9050602002013587878481811061068157610681610f23565b90506020028101906106939190610f90565b8787868181106106a5576106a5610f23565b90506020028101906100a59190610f90565b60010161064b565b336001600160a01b037f000000000000000000000000000000000000000000000000000000000000000016146107075760405162461bcd60e51b815260040161018690610ee3565b600080546040516370a0823160e01b81523060048201526001600160a01b03909116906370a082319060240160206040518083038186803b15801561074b57600080fd5b505afa15801561075f573d6000803e3d6000fd5b505050506040513d601f19601f820116820180604052508101906107839190610f0a565b600080549192506001600160a01b039091169063a9059cbb9087908790816107ad576107ad610f23565b90506020020160208101906107c29190610d5c565b6040516001600160e01b031960e084901b1681526001600160a01b03909116600482015260248101899052604401602060405180830381600087803b15801561080a57600080fd5b505af115801561081e573d6000803e3d6000fd5b505050506040513d601f19601f820116820180604052508101906108429190610ec1565b508360005b610852600183610ff0565b8110156109a35786868281811061086b5761086b610f23565b90506020020160208101906108809190610d5c565b6001600160a01b031663022c0d9f8686848181106108a0576108a0610f23565b9050604002016000600281106108b8576108b8610f23565b60200201358787858181106108cf576108cf610f23565b9050604002016001600281106108e7576108e7610f23565b60200201358a8a6108f9876001611007565b81811061090857610908610f23565b905060200201602081019061091d9190610d5c565b6040516001600160e01b031960e086901b168152600481019390935260248301919091526001600160a01b03166044820152608060648201526000608482015260a401600060405180830381600087803b15801561097a57600080fd5b505af115801561098e573d6000803e3d6000fd5b5050505061099c8160010190565b9050610847565b5085856109b1600184610ff0565b8181106109c0576109c0610f23565b90506020020160208101906109d59190610d5c565b6001600160a01b031663022c0d9f85856109f0600186610ff0565b8181106109ff576109ff610f23565b905060400201600060028110610a1757610a17610f23565b60200201358686610a29600187610ff0565b818110610a3857610a38610f23565b905060400201600160028110610a5057610a50610f23565b6040516001600160e01b031960e086901b168152600481019390935260200201356024820152306044820152608060648201526000608482015260a401600060405180830381600087803b158015610aa757600080fd5b505af1158015610abb573d6000803e3d6000fd5b5050600080546040516370a0823160e01b81523060048201529193506001600160a01b031691506370a082319060240160206040518083038186803b158015610b0357600080fd5b505afa158015610b17573d6000803e3d6000fd5b505050506040513d601f19601f82011682018060405250810190610b3b9190610f0a565b905082811161056e5760405162461bcd60e51b815260206004820152600e60248201526d6e6f742070726f66697461626c6560901b6044820152606401610186565b336001600160a01b037f00000000000000000000000000000000000000000000000000000000000000001614610bc55760405162461bcd60e51b815260040161018690610ee3565b8460005b8181101561056e57610c35888883818110610be657610be6610f23565b90506020020135878784818110610bff57610bff610f23565b9050602002810190610c119190610f90565b878786818110610c2357610c23610f23565b905060200281019061010d919061101f565b600101610bc9565b6001600160a01b0381168114610c5257600080fd5b50565b600080600060608486031215610c6a57600080fd5b8335610c7581610c3d565b92506020840135610c8581610c3d565b929592945050506040919091013590565b60008083601f840112610ca857600080fd5b50813567ffffffffffffffff811115610cc057600080fd5b6020830191508360208260051b8501011115610cdb57600080fd5b9250929050565b600080600080600060608688031215610cfa57600080fd5b85359450602086013567ffffffffffffffff80821115610d1957600080fd5b610d2589838a01610c96565b90965094506040880135915080821115610d3e57600080fd5b50610d4b88828901610c96565b969995985093965092949392505050565b600060208284031215610d6e57600080fd5b8135610d7981610c3d565b9392505050565b60008060008060008060608789031215610d9957600080fd5b863567ffffffffffffffff80821115610db157600080fd5b610dbd8a838b01610c96565b90985096506020890135915080821115610dd657600080fd5b610de28a838b01610c96565b90965094506040890135915080821115610dfb57600080fd5b50610e0889828a01610c96565b979a9699509497509295939492505050565b600080600080600060608688031215610e3257600080fd5b85359450602086013567ffffffffffffffff80821115610e5157600080fd5b610e5d89838a01610c96565b90965094506040880135915080821115610e7657600080fd5b818801915088601f830112610e8a57600080fd5b813581811115610e9957600080fd5b8960208260061b8501011115610eae57600080fd5b9699959850939650602001949392505050565b600060208284031215610ed357600080fd5b81518015158114610d7957600080fd5b6020808252600d908201526c27b7363c9032bc32b1baba37b960991b604082015260600190565b600060208284031215610f1c57600080fd5b5051919050565b634e487b7160e01b600052603260045260246000fd5b6000808335601e19843603018112610f5057600080fd5b83018035915067ffffffffffffffff821115610f6b57600080fd5b602001915036819003821315610cdb57600080fd5b8183823760009101908152919050565b6000808335601e19843603018112610fa757600080fd5b83018035915067ffffffffffffffff821115610fc257600080fd5b6020019150600581901b3603821315610cdb57600080fd5b634e487b7160e01b600052601160045260246000fd5b60008282101561100257611002610fda565b500390565b6000821982111561101a5761101a610fda565b500190565b6000808335601e1984360301811261103657600080fd5b83018035915067ffffffffffffffff82111561105157600080fd5b6020019150600681901b3603821315610cdb57600080fdfea2646970667358221220b4b2cd200bed1ccb8a07ed7bad191338a23f2e9177942eff94ee278515326a1164736f6c63430008090033",
  "devdoc": {
    "kind": "dev",
    "methods": {},
    "version": 1
  },
  "userdoc": {
    "kind": "user",
    "methods": {},
    "version": 1
  },
  "storageLayout": {
    "storage": [
      {
        "astId": 117,
        "contract": "contracts/BundleExecutor.sol:BundleExecutor",
        "label": "WETH",
        "offset": 0,
        "slot": "0",
        "type": "t_contract(IWETH)107"
      }
    ],
    "types": {
      "t_contract(IWETH)107": {
        "encoding": "inplace",
        "label": "contract IWETH",
        "numberOfBytes": "20"
      }
    }
  }
}