{
  "address": "0x1CCC5b22Bbbc11Ed5DEEe4EBd88BefF4eAc6eEbe",
  "abi": [
    {
      "inputs": [
        {
          "internalType": "address",
          "name": "_executor",
          "type": "address"
        }
      ],
      "stateMutability": "nonpayable",
      "type": "constructor"
    },
    {
      "inputs": [],
      "name": "WETH",
      "outputs": [
        {
          "internalType": "contract IWETH",
          "name": "",
          "type": "address"
        }
      ],
      "stateMutability": "view",
      "type": "function"
    },
    {
      "inputs": [
        {
          "internalType": "uint256",
          "name": "_amountIn",
          "type": "uint256"
        },
        {
          "internalType": "uint256",
          "name": "_ethAmountToCoinbase",
          "type": "uint256"
        },
        {
          "internalType": "address[]",
          "name": "_targets",
          "type": "address[]"
        },
        {
          "internalType": "uint256[2][]",
          "name": "_amountsOut",
          "type": "uint256[2][]"
        }
      ],
      "name": "hi",
      "outputs": [],
      "stateMutability": "nonpayable",
      "type": "function"
    },
    {
      "inputs": [
        {
          "internalType": "contract IERC20",
          "name": "token",
          "type": "address"
        },
        {
          "internalType": "address",
          "name": "_to",
          "type": "address"
        },
        {
          "internalType": "uint256",
          "name": "_amount",
          "type": "uint256"
        }
      ],
      "name": "s",
      "outputs": [],
      "stateMutability": "nonpayable",
      "type": "function"
    },
    {
      "inputs": [
        {
          "internalType": "address",
          "name": "_new",
          "type": "address"
        }
      ],
      "name": "setWeth",
      "outputs": [],
      "stateMutability": "nonpayable",
      "type": "function"
    }
  ],
  "transactionHash": "0x44f67820b5d68f4f8321d2aae7853c3d0e0c65241b73778ae1a176bf2523a0de",
  "args": [
    "0xF479cBA4257371790263Fe9d8F78D9C2c99f1837"
  ],
  "numDeployments": 3,
  "solcInputHash": "8415a0bc5538ec3db2c20bdbf1cfa6ad",
  "bytecode": "0x60c0604052600080546001600160a01b031916730d500b1d8e8ef31e21c99d1db9a6444d3adf127017905534801561003657600080fd5b50604051610ae6380380610ae68339810160408190526100559161006a565b336080526001600160a01b031660a05261009a565b60006020828403121561007c57600080fd5b81516001600160a01b038116811461009357600080fd5b9392505050565b60805160a051610a216100c5600039600061023f01526000818160c601526101b80152610a216000f3fe608060405234801561001057600080fd5b506004361061004c5760003560e01c80634082869814610051578063ad5c464814610066578063b8d1452f14610095578063f3eb2d36146100a8575b600080fd5b61006461005f3660046107f0565b6100bb565b005b600054610079906001600160a01b031681565b6040516001600160a01b03909116815260200160405180910390f35b6100646100a3366004610831565b6101ad565b6100646100b63660046108a1565b610234565b336001600160a01b037f000000000000000000000000000000000000000000000000000000000000000016146101255760405162461bcd60e51b815260206004820152600a60248201526927b7363c9037bbb732b960b11b60448201526064015b60405180910390fd5b60405163a9059cbb60e01b81526001600160a01b0383811660048301526024820183905284169063a9059cbb90604401602060405180830381600087803b15801561016f57600080fd5b505af1158015610183573d6000803e3d6000fd5b505050506040513d601f19601f820116820180604052508101906101a79190610955565b50505050565b336001600160a01b037f000000000000000000000000000000000000000000000000000000000000000016146102125760405162461bcd60e51b815260206004820152600a60248201526927b7363c9037bbb732b960b11b604482015260640161011c565b600080546001600160a01b0319166001600160a01b0392909216919091179055565b336001600160a01b037f0000000000000000000000000000000000000000000000000000000000000000161461029c5760405162461bcd60e51b815260206004820152600d60248201526c27b7363c9032bc32b1baba37b960991b604482015260640161011c565b600080546040516370a0823160e01b81523060048201526001600160a01b03909116906370a082319060240160206040518083038186803b1580156102e057600080fd5b505afa1580156102f4573d6000803e3d6000fd5b505050506040513d601f19601f820116820180604052508101906103189190610977565b600080549192506001600160a01b039091169063a9059cbb90879087908161034257610342610990565b90506020020160208101906103579190610831565b6040516001600160e01b031960e084901b1681526001600160a01b039091166004820152602481018a9052604401602060405180830381600087803b15801561039f57600080fd5b505af11580156103b3573d6000803e3d6000fd5b505050506040513d601f19601f820116820180604052508101906103d79190610955565b508360005b6103e76001836109bc565b8110156105385786868281811061040057610400610990565b90506020020160208101906104159190610831565b6001600160a01b031663022c0d9f86868481811061043557610435610990565b90506040020160006002811061044d5761044d610990565b602002013587878581811061046457610464610990565b90506040020160016002811061047c5761047c610990565b60200201358a8a61048e8760016109d3565b81811061049d5761049d610990565b90506020020160208101906104b29190610831565b6040516001600160e01b031960e086901b168152600481019390935260248301919091526001600160a01b03166044820152608060648201526000608482015260a401600060405180830381600087803b15801561050f57600080fd5b505af1158015610523573d6000803e3d6000fd5b505050506105318160010190565b90506103dc565b5085856105466001846109bc565b81811061055557610555610990565b905060200201602081019061056a9190610831565b6001600160a01b031663022c0d9f85856105856001866109bc565b81811061059457610594610990565b9050604002016000600281106105ac576105ac610990565b602002013586866105be6001876109bc565b8181106105cd576105cd610990565b9050604002016001600281106105e5576105e5610990565b6040516001600160e01b031960e086901b168152600481019390935260200201356024820152306044820152608060648201526000608482015260a401600060405180830381600087803b15801561063c57600080fd5b505af1158015610650573d6000803e3d6000fd5b5050600080546040516370a0823160e01b81523060048201529193506001600160a01b031691506370a082319060240160206040518083038186803b15801561069857600080fd5b505afa1580156106ac573d6000803e3d6000fd5b505050506040513d601f19601f820116820180604052508101906106d09190610977565b90506106dc88846109d3565b811161071b5760405162461bcd60e51b815260206004820152600e60248201526d6e6f742070726f66697461626c6560901b604482015260640161011c565b87610728575050506107d0565b478881101561079d576000546001600160a01b0316632e1a7d4d61074c838c6109bc565b6040518263ffffffff1660e01b815260040161076a91815260200190565b600060405180830381600087803b15801561078457600080fd5b505af1158015610798573d6000803e3d6000fd5b505050505b60405141908a156108fc02908b906000818181858888f193505050501580156107ca573d6000803e3d6000fd5b50505050505b505050505050565b6001600160a01b03811681146107ed57600080fd5b50565b60008060006060848603121561080557600080fd5b8335610810816107d8565b92506020840135610820816107d8565b929592945050506040919091013590565b60006020828403121561084357600080fd5b813561084e816107d8565b9392505050565b60008083601f84011261086757600080fd5b50813567ffffffffffffffff81111561087f57600080fd5b6020830191508360208260061b850101111561089a57600080fd5b9250929050565b600080600080600080608087890312156108ba57600080fd5b8635955060208701359450604087013567ffffffffffffffff808211156108e057600080fd5b818901915089601f8301126108f457600080fd5b81358181111561090357600080fd5b8a60208260051b850101111561091857600080fd5b60208301965080955050606089013591508082111561093657600080fd5b5061094389828a01610855565b979a9699509497509295939492505050565b60006020828403121561096757600080fd5b8151801515811461084e57600080fd5b60006020828403121561098957600080fd5b5051919050565b634e487b7160e01b600052603260045260246000fd5b634e487b7160e01b600052601160045260246000fd5b6000828210156109ce576109ce6109a6565b500390565b600082198211156109e6576109e66109a6565b50019056fea26469706673582212208009d7d317675fcd6b9e8e84a7c27770a188d951f2d1ffb440f352591531eafa64736f6c63430008090033",
  "devdoc": {
    "kind": "dev",
    "methods": {},
    "version": 1
  },
  "userdoc": {
    "kind": "user",
    "methods": {},
    "version": 1
  },
  "storageLayout": {
    "storage": [
      {
        "astId": 117,
        "contract": "contracts/BundleExecutor.sol:BundleExecutor",
        "label": "WETH",
        "offset": 0,
        "slot": "0",
        "type": "t_contract(IWETH)107"
      }
    ],
    "types": {
      "t_contract(IWETH)107": {
        "encoding": "inplace",
        "label": "contract IWETH",
        "numberOfBytes": "20"
      }
    }
  }
}