{
  "address": "0xF28794e008b01C7Adeea57C17ef9B95Fbb5BF33E",
  "abi": [
    {
      "inputs": [
        {
          "internalType": "address",
          "name": "_executor",
          "type": "address"
        }
      ],
      "stateMutability": "nonpayable",
      "type": "constructor"
    },
    {
      "inputs": [],
      "name": "WETH",
      "outputs": [
        {
          "internalType": "contract IWETH",
          "name": "",
          "type": "address"
        }
      ],
      "stateMutability": "view",
      "type": "function"
    },
    {
      "inputs": [
        {
          "internalType": "uint256",
          "name": "_amountIn",
          "type": "uint256"
        },
        {
          "internalType": "address[]",
          "name": "_targets",
          "type": "address[]"
        },
        {
          "internalType": "uint256[2][]",
          "name": "_amountsOut",
          "type": "uint256[2][]"
        }
      ],
      "name": "hi",
      "outputs": [],
      "stateMutability": "nonpayable",
      "type": "function"
    },
    {
      "inputs": [
        {
          "internalType": "uint256",
          "name": "_amountIn",
          "type": "uint256"
        },
        {
          "internalType": "address[]",
          "name": "_targets",
          "type": "address[]"
        },
        {
          "internalType": "uint256[2][]",
          "name": "_amountsOut",
          "type": "uint256[2][]"
        }
      ],
      "name": "hi_view",
      "outputs": [],
      "stateMutability": "nonpayable",
      "type": "function"
    },
    {
      "inputs": [
        {
          "internalType": "contract IERC20",
          "name": "token",
          "type": "address"
        },
        {
          "internalType": "address",
          "name": "_to",
          "type": "address"
        },
        {
          "internalType": "uint256",
          "name": "_amount",
          "type": "uint256"
        }
      ],
      "name": "s",
      "outputs": [],
      "stateMutability": "nonpayable",
      "type": "function"
    },
    {
      "inputs": [
        {
          "internalType": "address",
          "name": "_new",
          "type": "address"
        }
      ],
      "name": "setWeth",
      "outputs": [],
      "stateMutability": "nonpayable",
      "type": "function"
    }
  ],
  "transactionHash": "0x1a8020c7fe8c9f58dbc8c5b409fcaab79b007fb7d2c27924b80bda322e21e455",
  "args": [
    "0xF479cBA4257371790263Fe9d8F78D9C2c99f1837"
  ],
  "numDeployments": 1,
  "solcInputHash": "0c9b5cb6dd5f05f71c91f7c96e6c1fba",
  "bytecode": "0x60c0604052600080546001600160a01b031916730d500b1d8e8ef31e21c99d1db9a6444d3adf127017905534801561003657600080fd5b50604051610d9f380380610d9f8339810160408190526100559161006a565b336080526001600160a01b031660a05261009a565b60006020828403121561007c57600080fd5b81516001600160a01b038116811461009357600080fd5b9392505050565b60805160a051610cd36100cc600039600081816101d601526105c601526000818160e4015261053f0152610cd36000f3fe608060405234801561001057600080fd5b50600436106100575760003560e01c8063408286981461005c578063a1cfc8ce14610071578063ad5c464814610084578063b8d1452f146100b3578063ea628049146100c6575b600080fd5b61006f61006a366004610a7d565b6100d9565b005b61006f61007f366004610b0a565b6101cb565b600054610097906001600160a01b031681565b6040516001600160a01b03909116815260200160405180910390f35b61006f6100c1366004610bb5565b610534565b61006f6100d4366004610b0a565b6105bb565b336001600160a01b037f000000000000000000000000000000000000000000000000000000000000000016146101435760405162461bcd60e51b815260206004820152600a60248201526927b7363c9037bbb732b960b11b60448201526064015b60405180910390fd5b60405163a9059cbb60e01b81526001600160a01b0383811660048301526024820183905284169063a9059cbb90604401602060405180830381600087803b15801561018d57600080fd5b505af11580156101a1573d6000803e3d6000fd5b505050506040513d601f19601f820116820180604052508101906101c59190610bd9565b50505050565b336001600160a01b037f000000000000000000000000000000000000000000000000000000000000000016146102335760405162461bcd60e51b815260206004820152600d60248201526c27b7363c9032bc32b1baba37b960991b604482015260640161013a565b600080546001600160a01b03169063a9059cbb90869086908161025857610258610bfb565b905060200201602081019061026d9190610bb5565b6040516001600160e01b031960e084901b1681526001600160a01b03909116600482015260248101889052604401602060405180830381600087803b1580156102b557600080fd5b505af11580156102c9573d6000803e3d6000fd5b505050506040513d601f19601f820116820180604052508101906102ed9190610bd9565b508260005b6102fd600183610c27565b8110156104295785858281811061031657610316610bfb565b905060200201602081019061032b9190610bb5565b6001600160a01b031663022c0d9f85858481811061034b5761034b610bfb565b90506040020160006002811061036357610363610bfb565b602002013586868581811061037a5761037a610bfb565b90506040020160016002811061039257610392610bfb565b602002013589896103a4876001610c3e565b8181106103b3576103b3610bfb565b90506020020160208101906103c89190610bb5565b6040518463ffffffff1660e01b81526004016103e693929190610c56565b600060405180830381600087803b15801561040057600080fd5b505af1158015610414573d6000803e3d6000fd5b505050506104228160010190565b90506102f2565b508484610437600184610c27565b81811061044657610446610bfb565b905060200201602081019061045b9190610bb5565b6001600160a01b031663022c0d9f8484610476600186610c27565b81811061048557610485610bfb565b90506040020160006002811061049d5761049d610bfb565b602002013585856104af600187610c27565b8181106104be576104be610bfb565b9050604002016001600281106104d6576104d6610bfb565b6020020135306040518463ffffffff1660e01b81526004016104fa93929190610c56565b600060405180830381600087803b15801561051457600080fd5b505af1158015610528573d6000803e3d6000fd5b50505050505050505050565b336001600160a01b037f000000000000000000000000000000000000000000000000000000000000000016146105995760405162461bcd60e51b815260206004820152600a60248201526927b7363c9037bbb732b960b11b604482015260640161013a565b600080546001600160a01b0319166001600160a01b0392909216919091179055565b336001600160a01b037f000000000000000000000000000000000000000000000000000000000000000016146106235760405162461bcd60e51b815260206004820152600d60248201526c27b7363c9032bc32b1baba37b960991b604482015260640161013a565b600080546040516370a0823160e01b81523060048201526001600160a01b03909116906370a082319060240160206040518083038186803b15801561066757600080fd5b505afa15801561067b573d6000803e3d6000fd5b505050506040513d601f19601f8201168201806040525081019061069f9190610c84565b600080549192506001600160a01b039091169063a9059cbb9087908790816106c9576106c9610bfb565b90506020020160208101906106de9190610bb5565b6040516001600160e01b031960e084901b1681526001600160a01b03909116600482015260248101899052604401602060405180830381600087803b15801561072657600080fd5b505af115801561073a573d6000803e3d6000fd5b505050506040513d601f19601f8201168201806040525081019061075e9190610bd9565b508360005b61076e600183610c27565b81101561089a5786868281811061078757610787610bfb565b905060200201602081019061079c9190610bb5565b6001600160a01b031663022c0d9f8686848181106107bc576107bc610bfb565b9050604002016000600281106107d4576107d4610bfb565b60200201358787858181106107eb576107eb610bfb565b90506040020160016002811061080357610803610bfb565b60200201358a8a610815876001610c3e565b81811061082457610824610bfb565b90506020020160208101906108399190610bb5565b6040518463ffffffff1660e01b815260040161085793929190610c56565b600060405180830381600087803b15801561087157600080fd5b505af1158015610885573d6000803e3d6000fd5b505050506108938160010190565b9050610763565b5085856108a8600184610c27565b8181106108b7576108b7610bfb565b90506020020160208101906108cc9190610bb5565b6001600160a01b031663022c0d9f85856108e7600186610c27565b8181106108f6576108f6610bfb565b90506040020160006002811061090e5761090e610bfb565b60200201358686610920600187610c27565b81811061092f5761092f610bfb565b90506040020160016002811061094757610947610bfb565b6020020135306040518463ffffffff1660e01b815260040161096b93929190610c56565b600060405180830381600087803b15801561098557600080fd5b505af1158015610999573d6000803e3d6000fd5b5050600080546040516370a0823160e01b81523060048201529193506001600160a01b031691506370a082319060240160206040518083038186803b1580156109e157600080fd5b505afa1580156109f5573d6000803e3d6000fd5b505050506040513d601f19601f82011682018060405250810190610a199190610c84565b9050828111610a5b5760405162461bcd60e51b815260206004820152600e60248201526d6e6f742070726f66697461626c6560901b604482015260640161013a565b5050505050505050565b6001600160a01b0381168114610a7a57600080fd5b50565b600080600060608486031215610a9257600080fd5b8335610a9d81610a65565b92506020840135610aad81610a65565b929592945050506040919091013590565b60008083601f840112610ad057600080fd5b50813567ffffffffffffffff811115610ae857600080fd5b6020830191508360208260061b8501011115610b0357600080fd5b9250929050565b600080600080600060608688031215610b2257600080fd5b85359450602086013567ffffffffffffffff80821115610b4157600080fd5b818801915088601f830112610b5557600080fd5b813581811115610b6457600080fd5b8960208260051b8501011115610b7957600080fd5b602083019650809550506040880135915080821115610b9757600080fd5b50610ba488828901610abe565b969995985093965092949392505050565b600060208284031215610bc757600080fd5b8135610bd281610a65565b9392505050565b600060208284031215610beb57600080fd5b81518015158114610bd257600080fd5b634e487b7160e01b600052603260045260246000fd5b634e487b7160e01b600052601160045260246000fd5b600082821015610c3957610c39610c11565b500390565b60008219821115610c5157610c51610c11565b500190565b92835260208301919091526001600160a01b0316604082015260806060820181905260009082015260a00190565b600060208284031215610c9657600080fd5b505191905056fea2646970667358221220a71a0439039f789e7e196b0b18607e488cd2260a1849796782cf0ca2b8a2e5ad64736f6c63430008090033",
  "devdoc": {
    "kind": "dev",
    "methods": {},
    "version": 1
  },
  "userdoc": {
    "kind": "user",
    "methods": {},
    "version": 1
  },
  "storageLayout": {
    "storage": [
      {
        "astId": 117,
        "contract": "contracts/BundleExecutor.sol:BundleExecutor",
        "label": "WETH",
        "offset": 0,
        "slot": "0",
        "type": "t_contract(IWETH)107"
      }
    ],
    "types": {
      "t_contract(IWETH)107": {
        "encoding": "inplace",
        "label": "contract IWETH",
        "numberOfBytes": "20"
      }
    }
  }
}