{
  "address": "0xcbb45b429dfF1Bd9f975B17a878847f4d8bdf546",
  "abi": [
    {
      "inputs": [
        {
          "internalType": "string",
          "name": "name",
          "type": "string"
        },
        {
          "internalType": "string",
          "name": "symbol",
          "type": "string"
        }
      ],
      "stateMutability": "payable",
      "type": "constructor"
    },
    {
      "anonymous": false,
      "inputs": [
        {
          "indexed": true,
          "internalType": "address",
          "name": "owner",
          "type": "address"
        },
        {
          "indexed": true,
          "internalType": "address",
          "name": "spender",
          "type": "address"
        },
        {
          "indexed": false,
          "internalType": "uint256",
          "name": "value",
          "type": "uint256"
        }
      ],
      "name": "Approval",
      "type": "event"
    },
    {
      "anonymous": false,
      "inputs": [
        {
          "indexed": true,
          "internalType": "address",
          "name": "from",
          "type": "address"
        },
        {
          "indexed": true,
          "internalType": "address",
          "name": "to",
          "type": "address"
        },
        {
          "indexed": false,
          "internalType": "uint256",
          "name": "value",
          "type": "uint256"
        }
      ],
      "name": "Transfer",
      "type": "event"
    },
    {
      "inputs": [
        {
          "internalType": "address",
          "name": "owner",
          "type": "address"
        },
        {
          "internalType": "address",
          "name": "spender",
          "type": "address"
        }
      ],
      "name": "allowance",
      "outputs": [
        {
          "internalType": "uint256",
          "name": "",
          "type": "uint256"
        }
      ],
      "stateMutability": "view",
      "type": "function"
    },
    {
      "inputs": [
        {
          "internalType": "address",
          "name": "spender",
          "type": "address"
        },
        {
          "internalType": "uint256",
          "name": "amount",
          "type": "uint256"
        }
      ],
      "name": "approve",
      "outputs": [
        {
          "internalType": "bool",
          "name": "",
          "type": "bool"
        }
      ],
      "stateMutability": "nonpayable",
      "type": "function"
    },
    {
      "inputs": [
        {
          "internalType": "address",
          "name": "owner",
          "type": "address"
        },
        {
          "internalType": "address",
          "name": "spender",
          "type": "address"
        },
        {
          "internalType": "uint256",
          "name": "value",
          "type": "uint256"
        }
      ],
      "name": "approveInternal",
      "outputs": [],
      "stateMutability": "nonpayable",
      "type": "function"
    },
    {
      "inputs": [
        {
          "internalType": "address",
          "name": "account",
          "type": "address"
        }
      ],
      "name": "balanceOf",
      "outputs": [
        {
          "internalType": "uint256",
          "name": "",
          "type": "uint256"
        }
      ],
      "stateMutability": "view",
      "type": "function"
    },
    {
      "inputs": [
        {
          "internalType": "address",
          "name": "account",
          "type": "address"
        },
        {
          "internalType": "uint256",
          "name": "amount",
          "type": "uint256"
        }
      ],
      "name": "burn",
      "outputs": [],
      "stateMutability": "nonpayable",
      "type": "function"
    },
    {
      "inputs": [],
      "name": "decimals",
      "outputs": [
        {
          "internalType": "uint8",
          "name": "",
          "type": "uint8"
        }
      ],
      "stateMutability": "view",
      "type": "function"
    },
    {
      "inputs": [
        {
          "internalType": "address",
          "name": "spender",
          "type": "address"
        },
        {
          "internalType": "uint256",
          "name": "subtractedValue",
          "type": "uint256"
        }
      ],
      "name": "decreaseAllowance",
      "outputs": [
        {
          "internalType": "bool",
          "name": "",
          "type": "bool"
        }
      ],
      "stateMutability": "nonpayable",
      "type": "function"
    },
    {
      "inputs": [
        {
          "internalType": "address",
          "name": "spender",
          "type": "address"
        },
        {
          "internalType": "uint256",
          "name": "addedValue",
          "type": "uint256"
        }
      ],
      "name": "increaseAllowance",
      "outputs": [
        {
          "internalType": "bool",
          "name": "",
          "type": "bool"
        }
      ],
      "stateMutability": "nonpayable",
      "type": "function"
    },
    {
      "inputs": [
        {
          "internalType": "address",
          "name": "account",
          "type": "address"
        },
        {
          "internalType": "uint256",
          "name": "amount",
          "type": "uint256"
        }
      ],
      "name": "mint",
      "outputs": [],
      "stateMutability": "nonpayable",
      "type": "function"
    },
    {
      "inputs": [],
      "name": "name",
      "outputs": [
        {
          "internalType": "string",
          "name": "",
          "type": "string"
        }
      ],
      "stateMutability": "view",
      "type": "function"
    },
    {
      "inputs": [],
      "name": "symbol",
      "outputs": [
        {
          "internalType": "string",
          "name": "",
          "type": "string"
        }
      ],
      "stateMutability": "view",
      "type": "function"
    },
    {
      "inputs": [],
      "name": "totalSupply",
      "outputs": [
        {
          "internalType": "uint256",
          "name": "",
          "type": "uint256"
        }
      ],
      "stateMutability": "view",
      "type": "function"
    },
    {
      "inputs": [
        {
          "internalType": "address",
          "name": "to",
          "type": "address"
        },
        {
          "internalType": "uint256",
          "name": "amount",
          "type": "uint256"
        }
      ],
      "name": "transfer",
      "outputs": [
        {
          "internalType": "bool",
          "name": "",
          "type": "bool"
        }
      ],
      "stateMutability": "nonpayable",
      "type": "function"
    },
    {
      "inputs": [
        {
          "internalType": "address",
          "name": "from",
          "type": "address"
        },
        {
          "internalType": "address",
          "name": "to",
          "type": "address"
        },
        {
          "internalType": "uint256",
          "name": "amount",
          "type": "uint256"
        }
      ],
      "name": "transferFrom",
      "outputs": [
        {
          "internalType": "bool",
          "name": "",
          "type": "bool"
        }
      ],
      "stateMutability": "nonpayable",
      "type": "function"
    },
    {
      "inputs": [
        {
          "internalType": "address",
          "name": "from",
          "type": "address"
        },
        {
          "internalType": "address",
          "name": "to",
          "type": "address"
        },
        {
          "internalType": "uint256",
          "name": "value",
          "type": "uint256"
        }
      ],
      "name": "transferInternal",
      "outputs": [],
      "stateMutability": "nonpayable",
      "type": "function"
    }
  ],
  "transactionHash": "0x5453dd959015cde23055cd7b9c1fb15ab6d51b6b59d05d0e6cdbe7de4af1361c",
  "args": [
    "FRANKTOKEY",
    "FOK2"
  ],
  "numDeployments": 2,
  "solcInputHash": "a1e04a909f8c3e6ff8e23afdff13e164",
  "bytecode": "0x608060405260405162001c0938038062001c098339818101604052810190620000299190620002b4565b818181600390805190602001906200004392919062000067565b5080600490805190602001906200005c92919062000067565b50505050506200039e565b828054620000759062000368565b90600052602060002090601f016020900481019282620000995760008555620000e5565b82601f10620000b457805160ff1916838001178555620000e5565b82800160010185558215620000e5579182015b82811115620000e4578251825591602001919060010190620000c7565b5b509050620000f49190620000f8565b5090565b5b8082111562000113576000816000905550600101620000f9565b5090565b6000604051905090565b600080fd5b600080fd5b600080fd5b600080fd5b6000601f19601f8301169050919050565b7f4e487b7100000000000000000000000000000000000000000000000000000000600052604160045260246000fd5b620001808262000135565b810181811067ffffffffffffffff82111715620001a257620001a162000146565b5b80604052505050565b6000620001b762000117565b9050620001c5828262000175565b919050565b600067ffffffffffffffff821115620001e857620001e762000146565b5b620001f38262000135565b9050602081019050919050565b60005b838110156200022057808201518184015260208101905062000203565b8381111562000230576000848401525b50505050565b60006200024d6200024784620001ca565b620001ab565b9050828152602081018484840111156200026c576200026b62000130565b5b6200027984828562000200565b509392505050565b600082601f8301126200029957620002986200012b565b5b8151620002ab84826020860162000236565b91505092915050565b60008060408385031215620002ce57620002cd62000121565b5b600083015167ffffffffffffffff811115620002ef57620002ee62000126565b5b620002fd8582860162000281565b925050602083015167ffffffffffffffff81111562000321576200032062000126565b5b6200032f8582860162000281565b9150509250929050565b7f4e487b7100000000000000000000000000000000000000000000000000000000600052602260045260246000fd5b600060028204905060018216806200038157607f821691505b6020821081141562000398576200039762000339565b5b50919050565b61185b80620003ae6000396000f3fe608060405234801561001057600080fd5b50600436106100f55760003560e01c806340c10f19116100975780639dc29fac116100665780639dc29fac14610286578063a457c2d7146102a2578063a9059cbb146102d2578063dd62ed3e14610302576100f5565b806340c10f191461020057806356189cb41461021c57806370a082311461023857806395d89b4114610268576100f5565b8063222f5be0116100d3578063222f5be01461016657806323b872dd14610182578063313ce567146101b257806339509351146101d0576100f5565b806306fdde03146100fa578063095ea7b31461011857806318160ddd14610148575b600080fd5b610102610332565b60405161010f9190610f51565b60405180910390f35b610132600480360381019061012d919061100c565b6103c4565b60405161013f9190611067565b60405180910390f35b6101506103e7565b60405161015d9190611091565b60405180910390f35b610180600480360381019061017b91906110ac565b6103f1565b005b61019c600480360381019061019791906110ac565b610401565b6040516101a99190611067565b60405180910390f35b6101ba610430565b6040516101c7919061111b565b60405180910390f35b6101ea60048036038101906101e5919061100c565b610439565b6040516101f79190611067565b60405180910390f35b61021a6004803603810190610215919061100c565b610470565b005b610236600480360381019061023191906110ac565b61047e565b005b610252600480360381019061024d9190611136565b61048e565b60405161025f9190611091565b60405180910390f35b6102706104d6565b60405161027d9190610f51565b60405180910390f35b6102a0600480360381019061029b919061100c565b610568565b005b6102bc60048036038101906102b7919061100c565b610576565b6040516102c99190611067565b60405180910390f35b6102ec60048036038101906102e7919061100c565b6105ed565b6040516102f99190611067565b60405180910390f35b61031c60048036038101906103179190611163565b610610565b6040516103299190611091565b60405180910390f35b606060038054610341906111d2565b80601f016020809104026020016040519081016040528092919081815260200182805461036d906111d2565b80156103ba5780601f1061038f576101008083540402835291602001916103ba565b820191906000526020600020905b81548152906001019060200180831161039d57829003601f168201915b5050505050905090565b6000806103cf610697565b90506103dc81858561069f565b600191505092915050565b6000600254905090565b6103fc83838361086a565b505050565b60008061040c610697565b9050610419858285610aeb565b61042485858561086a565b60019150509392505050565b60006012905090565b600080610444610697565b90506104658185856104568589610610565b6104609190611233565b61069f565b600191505092915050565b61047a8282610b77565b5050565b61048983838361069f565b505050565b60008060008373ffffffffffffffffffffffffffffffffffffffff1673ffffffffffffffffffffffffffffffffffffffff168152602001908152602001600020549050919050565b6060600480546104e5906111d2565b80601f0160208091040260200160405190810160405280929190818152602001828054610511906111d2565b801561055e5780601f106105335761010080835404028352916020019161055e565b820191906000526020600020905b81548152906001019060200180831161054157829003601f168201915b5050505050905090565b6105728282610cd7565b5050565b600080610581610697565b9050600061058f8286610610565b9050838110156105d4576040517f08c379a00000000000000000000000000000000000000000000000000000000081526004016105cb906112fb565b60405180910390fd5b6105e1828686840361069f565b60019250505092915050565b6000806105f8610697565b905061060581858561086a565b600191505092915050565b6000600160008473ffffffffffffffffffffffffffffffffffffffff1673ffffffffffffffffffffffffffffffffffffffff16815260200190815260200160002060008373ffffffffffffffffffffffffffffffffffffffff1673ffffffffffffffffffffffffffffffffffffffff16815260200190815260200160002054905092915050565b600033905090565b600073ffffffffffffffffffffffffffffffffffffffff168373ffffffffffffffffffffffffffffffffffffffff16141561070f576040517f08c379a00000000000000000000000000000000000000000000000000000000081526004016107069061138d565b60405180910390fd5b600073ffffffffffffffffffffffffffffffffffffffff168273ffffffffffffffffffffffffffffffffffffffff16141561077f576040517f08c379a00000000000000000000000000000000000000000000000000000000081526004016107769061141f565b60405180910390fd5b80600160008573ffffffffffffffffffffffffffffffffffffffff1673ffffffffffffffffffffffffffffffffffffffff16815260200190815260200160002060008473ffffffffffffffffffffffffffffffffffffffff1673ffffffffffffffffffffffffffffffffffffffff168152602001908152602001600020819055508173ffffffffffffffffffffffffffffffffffffffff168373ffffffffffffffffffffffffffffffffffffffff167f8c5be1e5ebec7d5bd14f71427d1e84f3dd0314c0f7b2291e5b200ac8c7c3b9258360405161085d9190611091565b60405180910390a3505050565b600073ffffffffffffffffffffffffffffffffffffffff168373ffffffffffffffffffffffffffffffffffffffff1614156108da576040517f08c379a00000000000000000000000000000000000000000000000000000000081526004016108d1906114b1565b60405180910390fd5b600073ffffffffffffffffffffffffffffffffffffffff168273ffffffffffffffffffffffffffffffffffffffff16141561094a576040517f08c379a000000000000000000000000000000000000000000000000000000000815260040161094190611543565b60405180910390fd5b610955838383610eae565b60008060008573ffffffffffffffffffffffffffffffffffffffff1673ffffffffffffffffffffffffffffffffffffffff168152602001908152602001600020549050818110156109db576040517f08c379a00000000000000000000000000000000000000000000000000000000081526004016109d2906115d5565b60405180910390fd5b8181036000808673ffffffffffffffffffffffffffffffffffffffff1673ffffffffffffffffffffffffffffffffffffffff16815260200190815260200160002081905550816000808573ffffffffffffffffffffffffffffffffffffffff1673ffffffffffffffffffffffffffffffffffffffff1681526020019081526020016000206000828254610a6e9190611233565b925050819055508273ffffffffffffffffffffffffffffffffffffffff168473ffffffffffffffffffffffffffffffffffffffff167fddf252ad1be2c89b69c2b068fc378daa952ba7f163c4a11628f55a4df523b3ef84604051610ad29190611091565b60405180910390a3610ae5848484610eb3565b50505050565b6000610af78484610610565b90507fffffffffffffffffffffffffffffffffffffffffffffffffffffffffffffffff8114610b715781811015610b63576040517f08c379a0000000000000000000000000000000000000000000000000000000008152600401610b5a90611641565b60405180910390fd5b610b70848484840361069f565b5b50505050565b600073ffffffffffffffffffffffffffffffffffffffff168273ffffffffffffffffffffffffffffffffffffffff161415610be7576040517f08c379a0000000000000000000000000000000000000000000000000000000008152600401610bde906116ad565b60405180910390fd5b610bf360008383610eae565b8060026000828254610c059190611233565b92505081905550806000808473ffffffffffffffffffffffffffffffffffffffff1673ffffffffffffffffffffffffffffffffffffffff1681526020019081526020016000206000828254610c5a9190611233565b925050819055508173ffffffffffffffffffffffffffffffffffffffff16600073ffffffffffffffffffffffffffffffffffffffff167fddf252ad1be2c89b69c2b068fc378daa952ba7f163c4a11628f55a4df523b3ef83604051610cbf9190611091565b60405180910390a3610cd360008383610eb3565b5050565b600073ffffffffffffffffffffffffffffffffffffffff168273ffffffffffffffffffffffffffffffffffffffff161415610d47576040517f08c379a0000000000000000000000000000000000000000000000000000000008152600401610d3e9061173f565b60405180910390fd5b610d5382600083610eae565b60008060008473ffffffffffffffffffffffffffffffffffffffff1673ffffffffffffffffffffffffffffffffffffffff16815260200190815260200160002054905081811015610dd9576040517f08c379a0000000000000000000000000000000000000000000000000000000008152600401610dd0906117d1565b60405180910390fd5b8181036000808573ffffffffffffffffffffffffffffffffffffffff1673ffffffffffffffffffffffffffffffffffffffff168152602001908152602001600020819055508160026000828254610e3091906117f1565b92505081905550600073ffffffffffffffffffffffffffffffffffffffff168373ffffffffffffffffffffffffffffffffffffffff167fddf252ad1be2c89b69c2b068fc378daa952ba7f163c4a11628f55a4df523b3ef84604051610e959190611091565b60405180910390a3610ea983600084610eb3565b505050565b505050565b505050565b600081519050919050565b600082825260208201905092915050565b60005b83811015610ef2578082015181840152602081019050610ed7565b83811115610f01576000848401525b50505050565b6000601f19601f8301169050919050565b6000610f2382610eb8565b610f2d8185610ec3565b9350610f3d818560208601610ed4565b610f4681610f07565b840191505092915050565b60006020820190508181036000830152610f6b8184610f18565b905092915050565b600080fd5b600073ffffffffffffffffffffffffffffffffffffffff82169050919050565b6000610fa382610f78565b9050919050565b610fb381610f98565b8114610fbe57600080fd5b50565b600081359050610fd081610faa565b92915050565b6000819050919050565b610fe981610fd6565b8114610ff457600080fd5b50565b60008135905061100681610fe0565b92915050565b6000806040838503121561102357611022610f73565b5b600061103185828601610fc1565b925050602061104285828601610ff7565b9150509250929050565b60008115159050919050565b6110618161104c565b82525050565b600060208201905061107c6000830184611058565b92915050565b61108b81610fd6565b82525050565b60006020820190506110a66000830184611082565b92915050565b6000806000606084860312156110c5576110c4610f73565b5b60006110d386828701610fc1565b93505060206110e486828701610fc1565b92505060406110f586828701610ff7565b9150509250925092565b600060ff82169050919050565b611115816110ff565b82525050565b6000602082019050611130600083018461110c565b92915050565b60006020828403121561114c5761114b610f73565b5b600061115a84828501610fc1565b91505092915050565b6000806040838503121561117a57611179610f73565b5b600061118885828601610fc1565b925050602061119985828601610fc1565b9150509250929050565b7f4e487b7100000000000000000000000000000000000000000000000000000000600052602260045260246000fd5b600060028204905060018216806111ea57607f821691505b602082108114156111fe576111fd6111a3565b5b50919050565b7f4e487b7100000000000000000000000000000000000000000000000000000000600052601160045260246000fd5b600061123e82610fd6565b915061124983610fd6565b9250827fffffffffffffffffffffffffffffffffffffffffffffffffffffffffffffffff0382111561127e5761127d611204565b5b828201905092915050565b7f45524332303a2064656372656173656420616c6c6f77616e63652062656c6f7760008201527f207a65726f000000000000000000000000000000000000000000000000000000602082015250565b60006112e5602583610ec3565b91506112f082611289565b604082019050919050565b60006020820190508181036000830152611314816112d8565b9050919050565b7f45524332303a20617070726f76652066726f6d20746865207a65726f2061646460008201527f7265737300000000000000000000000000000000000000000000000000000000602082015250565b6000611377602483610ec3565b91506113828261131b565b604082019050919050565b600060208201905081810360008301526113a68161136a565b9050919050565b7f45524332303a20617070726f766520746f20746865207a65726f20616464726560008201527f7373000000000000000000000000000000000000000000000000000000000000602082015250565b6000611409602283610ec3565b9150611414826113ad565b604082019050919050565b60006020820190508181036000830152611438816113fc565b9050919050565b7f45524332303a207472616e736665722066726f6d20746865207a65726f20616460008201527f6472657373000000000000000000000000000000000000000000000000000000602082015250565b600061149b602583610ec3565b91506114a68261143f565b604082019050919050565b600060208201905081810360008301526114ca8161148e565b9050919050565b7f45524332303a207472616e7366657220746f20746865207a65726f206164647260008201527f6573730000000000000000000000000000000000000000000000000000000000602082015250565b600061152d602383610ec3565b9150611538826114d1565b604082019050919050565b6000602082019050818103600083015261155c81611520565b9050919050565b7f45524332303a207472616e7366657220616d6f756e742065786365656473206260008201527f616c616e63650000000000000000000000000000000000000000000000000000602082015250565b60006115bf602683610ec3565b91506115ca82611563565b604082019050919050565b600060208201905081810360008301526115ee816115b2565b9050919050565b7f45524332303a20696e73756666696369656e7420616c6c6f77616e6365000000600082015250565b600061162b601d83610ec3565b9150611636826115f5565b602082019050919050565b6000602082019050818103600083015261165a8161161e565b9050919050565b7f45524332303a206d696e7420746f20746865207a65726f206164647265737300600082015250565b6000611697601f83610ec3565b91506116a282611661565b602082019050919050565b600060208201905081810360008301526116c68161168a565b9050919050565b7f45524332303a206275726e2066726f6d20746865207a65726f2061646472657360008201527f7300000000000000000000000000000000000000000000000000000000000000602082015250565b6000611729602183610ec3565b9150611734826116cd565b604082019050919050565b600060208201905081810360008301526117588161171c565b9050919050565b7f45524332303a206275726e20616d6f756e7420657863656564732062616c616e60008201527f6365000000000000000000000000000000000000000000000000000000000000602082015250565b60006117bb602283610ec3565b91506117c68261175f565b604082019050919050565b600060208201905081810360008301526117ea816117ae565b9050919050565b60006117fc82610fd6565b915061180783610fd6565b92508282101561181a57611819611204565b5b82820390509291505056fea2646970667358221220af58b48d13c68f65f0a08bb27b788216f26c6f5809e6ae136d3c5d7b55bf5ece64736f6c63430008090033",
  "devdoc": {
    "kind": "dev",
    "methods": {
      "allowance(address,address)": {
        "details": "See {IERC20-allowance}."
      },
      "approve(address,uint256)": {
        "details": "See {IERC20-approve}. NOTE: If `amount` is the maximum `uint256`, the allowance is not updated on `transferFrom`. This is semantically equivalent to an infinite approval. Requirements: - `spender` cannot be the zero address."
      },
      "balanceOf(address)": {
        "details": "See {IERC20-balanceOf}."
      },
      "decimals()": {
        "details": "Returns the number of decimals used to get its user representation. For example, if `decimals` equals `2`, a balance of `505` tokens should be displayed to a user as `5.05` (`505 / 10 ** 2`). Tokens usually opt for a value of 18, imitating the relationship between Ether and Wei. This is the value {ERC20} uses, unless this function is overridden; NOTE: This information is only used for _display_ purposes: it in no way affects any of the arithmetic of the contract, including {IERC20-balanceOf} and {IERC20-transfer}."
      },
      "decreaseAllowance(address,uint256)": {
        "details": "Atomically decreases the allowance granted to `spender` by the caller. This is an alternative to {approve} that can be used as a mitigation for problems described in {IERC20-approve}. Emits an {Approval} event indicating the updated allowance. Requirements: - `spender` cannot be the zero address. - `spender` must have allowance for the caller of at least `subtractedValue`."
      },
      "increaseAllowance(address,uint256)": {
        "details": "Atomically increases the allowance granted to `spender` by the caller. This is an alternative to {approve} that can be used as a mitigation for problems described in {IERC20-approve}. Emits an {Approval} event indicating the updated allowance. Requirements: - `spender` cannot be the zero address."
      },
      "name()": {
        "details": "Returns the name of the token."
      },
      "symbol()": {
        "details": "Returns the symbol of the token, usually a shorter version of the name."
      },
      "totalSupply()": {
        "details": "See {IERC20-totalSupply}."
      },
      "transfer(address,uint256)": {
        "details": "See {IERC20-transfer}. Requirements: - `to` cannot be the zero address. - the caller must have a balance of at least `amount`."
      },
      "transferFrom(address,address,uint256)": {
        "details": "See {IERC20-transferFrom}. Emits an {Approval} event indicating the updated allowance. This is not required by the EIP. See the note at the beginning of {ERC20}. NOTE: Does not update the allowance if the current allowance is the maximum `uint256`. Requirements: - `from` and `to` cannot be the zero address. - `from` must have a balance of at least `amount`. - the caller must have allowance for ``from``'s tokens of at least `amount`."
      }
    },
    "version": 1
  },
  "userdoc": {
    "kind": "user",
    "methods": {},
    "version": 1
  },
  "storageLayout": {
    "storage": [
      {
        "astId": 15,
        "contract": "contracts/ERC20Mock.sol:ERC20Mock",
        "label": "_balances",
        "offset": 0,
        "slot": "0",
        "type": "t_mapping(t_address,t_uint256)"
      },
      {
        "astId": 21,
        "contract": "contracts/ERC20Mock.sol:ERC20Mock",
        "label": "_allowances",
        "offset": 0,
        "slot": "1",
        "type": "t_mapping(t_address,t_mapping(t_address,t_uint256))"
      },
      {
        "astId": 23,
        "contract": "contracts/ERC20Mock.sol:ERC20Mock",
        "label": "_totalSupply",
        "offset": 0,
        "slot": "2",
        "type": "t_uint256"
      },
      {
        "astId": 25,
        "contract": "contracts/ERC20Mock.sol:ERC20Mock",
        "label": "_name",
        "offset": 0,
        "slot": "3",
        "type": "t_string_storage"
      },
      {
        "astId": 27,
        "contract": "contracts/ERC20Mock.sol:ERC20Mock",
        "label": "_symbol",
        "offset": 0,
        "slot": "4",
        "type": "t_string_storage"
      }
    ],
    "types": {
      "t_address": {
        "encoding": "inplace",
        "label": "address",
        "numberOfBytes": "20"
      },
      "t_mapping(t_address,t_mapping(t_address,t_uint256))": {
        "encoding": "mapping",
        "key": "t_address",
        "label": "mapping(address => mapping(address => uint256))",
        "numberOfBytes": "32",
        "value": "t_mapping(t_address,t_uint256)"
      },
      "t_mapping(t_address,t_uint256)": {
        "encoding": "mapping",
        "key": "t_address",
        "label": "mapping(address => uint256)",
        "numberOfBytes": "32",
        "value": "t_uint256"
      },
      "t_string_storage": {
        "encoding": "bytes",
        "label": "string",
        "numberOfBytes": "32"
      },
      "t_uint256": {
        "encoding": "inplace",
        "label": "uint256",
        "numberOfBytes": "32"
      }
    }
  }
}