{
  "address": "0x444908F8f8f7fC7BAa948782A7e89785c61AeD7E",
  "abi": [
    {
      "inputs": [
        {
          "internalType": "address",
          "name": "_executor",
          "type": "address"
        }
      ],
      "stateMutability": "payable",
      "type": "constructor"
    },
    {
      "inputs": [
        {
          "internalType": "address payable",
          "name": "_to",
          "type": "address"
        },
        {
          "internalType": "uint256",
          "name": "_value",
          "type": "uint256"
        },
        {
          "internalType": "bytes",
          "name": "_data",
          "type": "bytes"
        }
      ],
      "name": "call",
      "outputs": [
        {
          "internalType": "bytes",
          "name": "",
          "type": "bytes"
        }
      ],
      "stateMutability": "payable",
      "type": "function"
    },
    {
      "inputs": [
        {
          "internalType": "contract IERC20",
          "name": "token",
          "type": "address"
        },
        {
          "internalType": "address",
          "name": "_to",
          "type": "address"
        },
        {
          "internalType": "uint256",
          "name": "_amount",
          "type": "uint256"
        }
      ],
      "name": "sweepERC20",
      "outputs": [],
      "stateMutability": "nonpayable",
      "type": "function"
    },
    {
      "inputs": [
        {
          "internalType": "uint256",
          "name": "_wethAmountToFirstMarket",
          "type": "uint256"
        },
        {
          "internalType": "uint256",
          "name": "_ethAmountToCoinbase",
          "type": "uint256"
        },
        {
          "internalType": "address[]",
          "name": "_targets",
          "type": "address[]"
        },
        {
          "internalType": "bytes[]",
          "name": "_payloads",
          "type": "bytes[]"
        }
      ],
      "name": "uniswapWeth",
      "outputs": [],
      "stateMutability": "payable",
      "type": "function"
    },
    {
      "stateMutability": "payable",
      "type": "receive"
    }
  ],
  "transactionHash": "0x8ccb849a60b638d78f6dae97bd4cf16aba77931d09a5c16cfcf002ce3825d3f1",
  "args": [
    "0xF479cBA4257371790263Fe9d8F78D9C2c99f1837"
  ],
  "numDeployments": 11,
  "solcInputHash": "3f156b96d3ddf3438f5152032d564013",
  "bytecode": "0x60c06040526040516200150138038062001501833981810160405281019062000029919062000184565b3373ffffffffffffffffffffffffffffffffffffffff1660808173ffffffffffffffffffffffffffffffffffffffff16815250508073ffffffffffffffffffffffffffffffffffffffff1660a08173ffffffffffffffffffffffffffffffffffffffff168152505060003411156200011357739c3c9283d3e44854697cd22d3faa240cfb03288973ffffffffffffffffffffffffffffffffffffffff1663d0e30db0346040518263ffffffff1660e01b81526004016000604051808303818588803b158015620000f857600080fd5b505af11580156200010d573d6000803e3d6000fd5b50505050505b50620001b6565b600080fd5b600073ffffffffffffffffffffffffffffffffffffffff82169050919050565b60006200014c826200011f565b9050919050565b6200015e816200013f565b81146200016a57600080fd5b50565b6000815190506200017e8162000153565b92915050565b6000602082840312156200019d576200019c6200011a565b5b6000620001ad848285016200016d565b91505092915050565b60805160a05161131f620001e2600039600061032f01526000818160bb01526101de015261131f6000f3fe6080604052600436106100385760003560e01c8063503690d1146100445780636dbf2fa01461006d578063ecd494b31461009d5761003f565b3661003f57005b600080fd5b34801561005057600080fd5b5061006b60048036038101906100669190610877565b6100b9565b005b6100876004803603810190610082919061096d565b6101da565b6040516100949190610a7a565b60405180910390f35b6100b760048036038101906100b29190610d70565b61032d565b005b7f000000000000000000000000000000000000000000000000000000000000000073ffffffffffffffffffffffffffffffffffffffff163373ffffffffffffffffffffffffffffffffffffffff1614610147576040517f08c379a000000000000000000000000000000000000000000000000000000000815260040161013e90610e6c565b60405180910390fd5b8273ffffffffffffffffffffffffffffffffffffffff1663a9059cbb83836040518363ffffffff1660e01b8152600401610182929190610eaa565b602060405180830381600087803b15801561019c57600080fd5b505af11580156101b0573d6000803e3d6000fd5b505050506040513d601f19601f820116820180604052508101906101d49190610f0b565b50505050565b60607f000000000000000000000000000000000000000000000000000000000000000073ffffffffffffffffffffffffffffffffffffffff163373ffffffffffffffffffffffffffffffffffffffff161461026a576040517f08c379a000000000000000000000000000000000000000000000000000000000815260040161026190610e6c565b60405180910390fd5b600073ffffffffffffffffffffffffffffffffffffffff168573ffffffffffffffffffffffffffffffffffffffff1614156102a457600080fd5b6000808673ffffffffffffffffffffffffffffffffffffffff168686866040516102cf929190610f68565b60006040518083038185875af1925050503d806000811461030c576040519150601f19603f3d011682016040523d82523d6000602084013e610311565b606091505b50915091508161032057600080fd5b8092505050949350505050565b7f000000000000000000000000000000000000000000000000000000000000000073ffffffffffffffffffffffffffffffffffffffff163373ffffffffffffffffffffffffffffffffffffffff16146103bb576040517f08c379a00000000000000000000000000000000000000000000000000000000081526004016103b290610fcd565b60405180910390fd5b80518251146103ff576040517f08c379a00000000000000000000000000000000000000000000000000000000081526004016103f690611039565b60405180910390fd5b6000739c3c9283d3e44854697cd22d3faa240cfb03288973ffffffffffffffffffffffffffffffffffffffff166370a08231306040518263ffffffff1660e01b815260040161044e9190611059565b60206040518083038186803b15801561046657600080fd5b505afa15801561047a573d6000803e3d6000fd5b505050506040513d601f19601f8201168201806040525081019061049e9190611089565b90506000739c3c9283d3e44854697cd22d3faa240cfb03288973ffffffffffffffffffffffffffffffffffffffff1663a9059cbb856000815181106104e6576104e56110b6565b5b6020026020010151886040518363ffffffff1660e01b815260040161050c929190610eaa565b602060405180830381600087803b15801561052657600080fd5b505af115801561053a573d6000803e3d6000fd5b505050506040513d601f19601f8201168201806040525081019061055e9190610f0b565b9050806105a0576040517f08c379a000000000000000000000000000000000000000000000000000000000815260040161059790611131565b60405180910390fd5b60005b84518110156106a4576000808683815181106105c2576105c16110b6565b5b602002602001015173ffffffffffffffffffffffffffffffffffffffff168684815181106105f3576105f26110b6565b5b60200260200101516040516106089190611182565b6000604051808303816000865af19150503d8060008114610645576040519150601f19603f3d011682016040523d82523d6000602084013e61064a565b606091505b50915091508161068f576040517f08c379a0000000000000000000000000000000000000000000000000000000008152600401610686906111e5565b60405180910390fd5b5050808061069c90611234565b9150506105a3565b506000739c3c9283d3e44854697cd22d3faa240cfb03288973ffffffffffffffffffffffffffffffffffffffff166370a08231306040518263ffffffff1660e01b81526004016106f49190611059565b60206040518083038186803b15801561070c57600080fd5b505afa158015610720573d6000803e3d6000fd5b505050506040513d601f19601f820116820180604052508101906107449190611089565b9050828111610788576040517f08c379a000000000000000000000000000000000000000000000000000000000815260040161077f906112c9565b60405180910390fd5b50505050505050565b6000604051905090565b600080fd5b600080fd5b600073ffffffffffffffffffffffffffffffffffffffff82169050919050565b60006107d0826107a5565b9050919050565b60006107e2826107c5565b9050919050565b6107f2816107d7565b81146107fd57600080fd5b50565b60008135905061080f816107e9565b92915050565b61081e816107c5565b811461082957600080fd5b50565b60008135905061083b81610815565b92915050565b6000819050919050565b61085481610841565b811461085f57600080fd5b50565b6000813590506108718161084b565b92915050565b6000806000606084860312156108905761088f61079b565b5b600061089e86828701610800565b93505060206108af8682870161082c565b92505060406108c086828701610862565b9150509250925092565b60006108d5826107a5565b9050919050565b6108e5816108ca565b81146108f057600080fd5b50565b600081359050610902816108dc565b92915050565b600080fd5b600080fd5b600080fd5b60008083601f84011261092d5761092c610908565b5b8235905067ffffffffffffffff81111561094a5761094961090d565b5b60208301915083600182028301111561096657610965610912565b5b9250929050565b600080600080606085870312156109875761098661079b565b5b6000610995878288016108f3565b94505060206109a687828801610862565b935050604085013567ffffffffffffffff8111156109c7576109c66107a0565b5b6109d387828801610917565b925092505092959194509250565b600081519050919050565b600082825260208201905092915050565b60005b83811015610a1b578082015181840152602081019050610a00565b83811115610a2a576000848401525b50505050565b6000601f19601f8301169050919050565b6000610a4c826109e1565b610a5681856109ec565b9350610a668185602086016109fd565b610a6f81610a30565b840191505092915050565b60006020820190508181036000830152610a948184610a41565b905092915050565b7f4e487b7100000000000000000000000000000000000000000000000000000000600052604160045260246000fd5b610ad482610a30565b810181811067ffffffffffffffff82111715610af357610af2610a9c565b5b80604052505050565b6000610b06610791565b9050610b128282610acb565b919050565b600067ffffffffffffffff821115610b3257610b31610a9c565b5b602082029050602081019050919050565b6000610b56610b5184610b17565b610afc565b90508083825260208201905060208402830185811115610b7957610b78610912565b5b835b81811015610ba25780610b8e888261082c565b845260208401935050602081019050610b7b565b5050509392505050565b600082601f830112610bc157610bc0610908565b5b8135610bd1848260208601610b43565b91505092915050565b600067ffffffffffffffff821115610bf557610bf4610a9c565b5b602082029050602081019050919050565b600080fd5b600067ffffffffffffffff821115610c2657610c25610a9c565b5b610c2f82610a30565b9050602081019050919050565b82818337600083830152505050565b6000610c5e610c5984610c0b565b610afc565b905082815260208101848484011115610c7a57610c79610c06565b5b610c85848285610c3c565b509392505050565b600082601f830112610ca257610ca1610908565b5b8135610cb2848260208601610c4b565b91505092915050565b6000610cce610cc984610bda565b610afc565b90508083825260208201905060208402830185811115610cf157610cf0610912565b5b835b81811015610d3857803567ffffffffffffffff811115610d1657610d15610908565b5b808601610d238982610c8d565b85526020850194505050602081019050610cf3565b5050509392505050565b600082601f830112610d5757610d56610908565b5b8135610d67848260208601610cbb565b91505092915050565b60008060008060808587031215610d8a57610d8961079b565b5b6000610d9887828801610862565b9450506020610da987828801610862565b935050604085013567ffffffffffffffff811115610dca57610dc96107a0565b5b610dd687828801610bac565b925050606085013567ffffffffffffffff811115610df757610df66107a0565b5b610e0387828801610d42565b91505092959194509250565b600082825260208201905092915050565b7f4f6e6c79206f776e657200000000000000000000000000000000000000000000600082015250565b6000610e56600a83610e0f565b9150610e6182610e20565b602082019050919050565b60006020820190508181036000830152610e8581610e49565b9050919050565b610e95816107c5565b82525050565b610ea481610841565b82525050565b6000604082019050610ebf6000830185610e8c565b610ecc6020830184610e9b565b9392505050565b60008115159050919050565b610ee881610ed3565b8114610ef357600080fd5b50565b600081519050610f0581610edf565b92915050565b600060208284031215610f2157610f2061079b565b5b6000610f2f84828501610ef6565b91505092915050565b600081905092915050565b6000610f4f8385610f38565b9350610f5c838584610c3c565b82840190509392505050565b6000610f75828486610f43565b91508190509392505050565b7f4f6e6c79206578656375746f7200000000000000000000000000000000000000600082015250565b6000610fb7600d83610e0f565b9150610fc282610f81565b602082019050919050565b60006020820190508181036000830152610fe681610faa565b9050919050565b7f626164206c656e67746873000000000000000000000000000000000000000000600082015250565b6000611023600b83610e0f565b915061102e82610fed565b602082019050919050565b6000602082019050818103600083015261105281611016565b9050919050565b600060208201905061106e6000830184610e8c565b92915050565b6000815190506110838161084b565b92915050565b60006020828403121561109f5761109e61079b565b5b60006110ad84828501611074565b91505092915050565b7f4e487b7100000000000000000000000000000000000000000000000000000000600052603260045260246000fd5b7f66697273742077657468206661696c0000000000000000000000000000000000600082015250565b600061111b600f83610e0f565b9150611126826110e5565b602082019050919050565b6000602082019050818103600083015261114a8161110e565b9050919050565b600061115c826109e1565b6111668185610f38565b93506111768185602086016109fd565b80840191505092915050565b600061118e8284611151565b915081905092915050565b7f6572726f72206f6e206c6f6f7000000000000000000000000000000000000000600082015250565b60006111cf600d83610e0f565b91506111da82611199565b602082019050919050565b600060208201905081810360008301526111fe816111c2565b9050919050565b7f4e487b7100000000000000000000000000000000000000000000000000000000600052601160045260246000fd5b600061123f82610841565b91507fffffffffffffffffffffffffffffffffffffffffffffffffffffffffffffffff82141561127257611271611205565b5b600182019050919050565b7f7265766572746564206e6f6e2070726f66697461626c65000000000000000000600082015250565b60006112b3601783610e0f565b91506112be8261127d565b602082019050919050565b600060208201905081810360008301526112e2816112a6565b905091905056fea2646970667358221220bf64caa7422ddfdbc9c27e41fa4ee6bf7740ff79892bbea38f93f448e2aa4e2764736f6c63430008090033",
  "devdoc": {
    "kind": "dev",
    "methods": {},
    "version": 1
  },
  "userdoc": {
    "kind": "user",
    "methods": {},
    "version": 1
  },
  "storageLayout": {
    "storage": [],
    "types": null
  }
}