{
  "address": "0x4040551f724F928E7bE00389dEa9C654163BFbb9",
  "abi": [
    {
      "inputs": [
        {
          "internalType": "address",
          "name": "_executor",
          "type": "address"
        }
      ],
      "stateMutability": "payable",
      "type": "constructor"
    },
    {
      "inputs": [
        {
          "internalType": "address payable",
          "name": "_to",
          "type": "address"
        },
        {
          "internalType": "uint256",
          "name": "_value",
          "type": "uint256"
        },
        {
          "internalType": "bytes",
          "name": "_data",
          "type": "bytes"
        }
      ],
      "name": "call",
      "outputs": [
        {
          "internalType": "bytes",
          "name": "",
          "type": "bytes"
        }
      ],
      "stateMutability": "payable",
      "type": "function"
    },
    {
      "inputs": [
        {
          "internalType": "address",
          "name": "_new",
          "type": "address"
        }
      ],
      "name": "setWeth",
      "outputs": [],
      "stateMutability": "nonpayable",
      "type": "function"
    },
    {
      "inputs": [
        {
          "internalType": "contract IERC20",
          "name": "token",
          "type": "address"
        },
        {
          "internalType": "address",
          "name": "_to",
          "type": "address"
        },
        {
          "internalType": "uint256",
          "name": "_amount",
          "type": "uint256"
        }
      ],
      "name": "sweepERC20",
      "outputs": [],
      "stateMutability": "nonpayable",
      "type": "function"
    },
    {
      "inputs": [
        {
          "internalType": "uint256",
          "name": "wethIn",
          "type": "uint256"
        },
        {
          "internalType": "address[]",
          "name": "targets",
          "type": "address[]"
        },
        {
          "internalType": "uint256[]",
          "name": "amount0Outs",
          "type": "uint256[]"
        },
        {
          "internalType": "uint256[]",
          "name": "amount1Outs",
          "type": "uint256[]"
        }
      ],
      "name": "twohop",
      "outputs": [],
      "stateMutability": "payable",
      "type": "function"
    },
    {
      "inputs": [
        {
          "internalType": "uint256",
          "name": "_wethAmountToFirstMarket",
          "type": "uint256"
        },
        {
          "internalType": "uint256",
          "name": "_ethAmountToCoinbase",
          "type": "uint256"
        },
        {
          "internalType": "address[]",
          "name": "_targets",
          "type": "address[]"
        },
        {
          "internalType": "bytes[]",
          "name": "_payloads",
          "type": "bytes[]"
        }
      ],
      "name": "uniswapWeth",
      "outputs": [],
      "stateMutability": "payable",
      "type": "function"
    },
    {
      "stateMutability": "payable",
      "type": "receive"
    }
  ],
  "transactionHash": "0xea348286a47583f0533a4747497b6e56e88e40c337f0ddf743ed30659e8c7ac6",
  "args": [
    "0xF479cBA4257371790263Fe9d8F78D9C2c99f1837"
  ],
  "numDeployments": 3,
  "solcInputHash": "167efd20a5371172027355e2b88ec60d",
  "bytecode": "0x60c0604052730d500b1d8e8ef31e21c99d1db9a6444d3adf12706000806101000a81548173ffffffffffffffffffffffffffffffffffffffff021916908373ffffffffffffffffffffffffffffffffffffffff16021790555060405162001de538038062001de583398181016040528101906200007d9190620001e4565b3373ffffffffffffffffffffffffffffffffffffffff1660808173ffffffffffffffffffffffffffffffffffffffff16815250508073ffffffffffffffffffffffffffffffffffffffff1660a08173ffffffffffffffffffffffffffffffffffffffff16815250506000341115620001735760008054906101000a900473ffffffffffffffffffffffffffffffffffffffff1673ffffffffffffffffffffffffffffffffffffffff1663d0e30db0346040518263ffffffff1660e01b81526004016000604051808303818588803b1580156200015857600080fd5b505af11580156200016d573d6000803e3d6000fd5b50505050505b5062000216565b600080fd5b600073ffffffffffffffffffffffffffffffffffffffff82169050919050565b6000620001ac826200017f565b9050919050565b620001be816200019f565b8114620001ca57600080fd5b50565b600081519050620001de81620001b3565b92915050565b600060208284031215620001fd57620001fc6200017a565b5b60006200020d84828501620001cd565b91505092915050565b60805160a051611b946200025160003960008181610237015261096b01526000818161011601528181610749015261089a0152611b946000f3fe60806040526004361061004e5760003560e01c8063503690d11461005a5780636b1ffaf7146100835780636dbf2fa01461009f578063b8d1452f146100cf578063ecd494b3146100f857610055565b3661005557005b600080fd5b34801561006657600080fd5b50610081600480360381019061007c9190610eda565b610114565b005b61009d60048036038101906100989190610fe8565b610235565b005b6100b960048036038101906100b49190611145565b610745565b6040516100c69190611252565b60405180910390f35b3480156100db57600080fd5b506100f660048036038101906100f19190611274565b610898565b005b610112600480360381019061010d9190611575565b610969565b005b7f000000000000000000000000000000000000000000000000000000000000000073ffffffffffffffffffffffffffffffffffffffff163373ffffffffffffffffffffffffffffffffffffffff16146101a2576040517f08c379a000000000000000000000000000000000000000000000000000000000815260040161019990611671565b60405180910390fd5b8273ffffffffffffffffffffffffffffffffffffffff1663a9059cbb83836040518363ffffffff1660e01b81526004016101dd9291906116af565b602060405180830381600087803b1580156101f757600080fd5b505af115801561020b573d6000803e3d6000fd5b505050506040513d601f19601f8201168201806040525081019061022f9190611710565b50505050565b7f000000000000000000000000000000000000000000000000000000000000000073ffffffffffffffffffffffffffffffffffffffff163373ffffffffffffffffffffffffffffffffffffffff16146102c3576040517f08c379a00000000000000000000000000000000000000000000000000000000081526004016102ba90611789565b60405180910390fd5b60008060009054906101000a900473ffffffffffffffffffffffffffffffffffffffff1673ffffffffffffffffffffffffffffffffffffffff166370a08231306040518263ffffffff1660e01b815260040161031f91906117a9565b60206040518083038186803b15801561033757600080fd5b505afa15801561034b573d6000803e3d6000fd5b505050506040513d601f19601f8201168201806040525081019061036f91906117d9565b905060008060009054906101000a900473ffffffffffffffffffffffffffffffffffffffff1673ffffffffffffffffffffffffffffffffffffffff1663a9059cbb898960008181106103c4576103c3611806565b5b90506020020160208101906103d99190611274565b8b6040518363ffffffff1660e01b81526004016103f79291906116af565b602060405180830381600087803b15801561041157600080fd5b505af1158015610425573d6000803e3d6000fd5b505050506040513d601f19601f820116820180604052508101906104499190611710565b90508061048b576040517f08c379a000000000000000000000000000000000000000000000000000000000815260040161048290611881565b60405180910390fd5b8787600081811061049f5761049e611806565b5b90506020020160208101906104b49190611274565b73ffffffffffffffffffffffffffffffffffffffff1663022c0d9f878760008181106104e3576104e2611806565b5b90506020020135868660008181106104fe576104fd611806565b5b905060200201358b8b600181811061051957610518611806565b5b905060200201602081019061052e9190611274565b6040518463ffffffff1660e01b815260040161054c939291906118c7565b600060405180830381600087803b15801561056657600080fd5b505af115801561057a573d6000803e3d6000fd5b505050508787600181811061059257610591611806565b5b90506020020160208101906105a79190611274565b73ffffffffffffffffffffffffffffffffffffffff1663022c0d9f878760018181106105d6576105d5611806565b5b90506020020135868660018181106105f1576105f0611806565b5b90506020020135306040518463ffffffff1660e01b8152600401610617939291906118c7565b600060405180830381600087803b15801561063157600080fd5b505af1158015610645573d6000803e3d6000fd5b5050505060008060009054906101000a900473ffffffffffffffffffffffffffffffffffffffff1673ffffffffffffffffffffffffffffffffffffffff166370a08231306040518263ffffffff1660e01b81526004016106a591906117a9565b60206040518083038186803b1580156106bd57600080fd5b505afa1580156106d1573d6000803e3d6000fd5b505050506040513d601f19601f820116820180604052508101906106f591906117d9565b9050828111610739576040517f08c379a00000000000000000000000000000000000000000000000000000000081526004016107309061195d565b60405180910390fd5b50505050505050505050565b60607f000000000000000000000000000000000000000000000000000000000000000073ffffffffffffffffffffffffffffffffffffffff163373ffffffffffffffffffffffffffffffffffffffff16146107d5576040517f08c379a00000000000000000000000000000000000000000000000000000000081526004016107cc90611671565b60405180910390fd5b600073ffffffffffffffffffffffffffffffffffffffff168573ffffffffffffffffffffffffffffffffffffffff16141561080f57600080fd5b6000808673ffffffffffffffffffffffffffffffffffffffff1686868660405161083a9291906119ad565b60006040518083038185875af1925050503d8060008114610877576040519150601f19603f3d011682016040523d82523d6000602084013e61087c565b606091505b50915091508161088b57600080fd5b8092505050949350505050565b7f000000000000000000000000000000000000000000000000000000000000000073ffffffffffffffffffffffffffffffffffffffff163373ffffffffffffffffffffffffffffffffffffffff1614610926576040517f08c379a000000000000000000000000000000000000000000000000000000000815260040161091d90611671565b60405180910390fd5b806000806101000a81548173ffffffffffffffffffffffffffffffffffffffff021916908373ffffffffffffffffffffffffffffffffffffffff16021790555050565b7f000000000000000000000000000000000000000000000000000000000000000073ffffffffffffffffffffffffffffffffffffffff163373ffffffffffffffffffffffffffffffffffffffff16146109f7576040517f08c379a00000000000000000000000000000000000000000000000000000000081526004016109ee90611789565b60405180910390fd5b8051825114610a3b576040517f08c379a0000000000000000000000000000000000000000000000000000000008152600401610a3290611a12565b60405180910390fd5b60008060009054906101000a900473ffffffffffffffffffffffffffffffffffffffff1673ffffffffffffffffffffffffffffffffffffffff166370a08231306040518263ffffffff1660e01b8152600401610a9791906117a9565b60206040518083038186803b158015610aaf57600080fd5b505afa158015610ac3573d6000803e3d6000fd5b505050506040513d601f19601f82011682018060405250810190610ae791906117d9565b905060008060009054906101000a900473ffffffffffffffffffffffffffffffffffffffff1673ffffffffffffffffffffffffffffffffffffffff1663a9059cbb85600081518110610b3c57610b3b611806565b5b6020026020010151886040518363ffffffff1660e01b8152600401610b629291906116af565b602060405180830381600087803b158015610b7c57600080fd5b505af1158015610b90573d6000803e3d6000fd5b505050506040513d601f19601f82011682018060405250810190610bb49190611710565b905080610bf6576040517f08c379a0000000000000000000000000000000000000000000000000000000008152600401610bed90611881565b60405180910390fd5b60005b8451811015610cfa57600080868381518110610c1857610c17611806565b5b602002602001015173ffffffffffffffffffffffffffffffffffffffff16868481518110610c4957610c48611806565b5b6020026020010151604051610c5e9190611a63565b6000604051808303816000865af19150503d8060008114610c9b576040519150601f19603f3d011682016040523d82523d6000602084013e610ca0565b606091505b509150915081610ce5576040517f08c379a0000000000000000000000000000000000000000000000000000000008152600401610cdc90611ac6565b60405180910390fd5b50508080610cf290611b15565b915050610bf9565b5060008060009054906101000a900473ffffffffffffffffffffffffffffffffffffffff1673ffffffffffffffffffffffffffffffffffffffff166370a08231306040518263ffffffff1660e01b8152600401610d5791906117a9565b60206040518083038186803b158015610d6f57600080fd5b505afa158015610d83573d6000803e3d6000fd5b505050506040513d601f19601f82011682018060405250810190610da791906117d9565b9050828111610deb576040517f08c379a0000000000000000000000000000000000000000000000000000000008152600401610de29061195d565b60405180910390fd5b50505050505050565b6000604051905090565b600080fd5b600080fd5b600073ffffffffffffffffffffffffffffffffffffffff82169050919050565b6000610e3382610e08565b9050919050565b6000610e4582610e28565b9050919050565b610e5581610e3a565b8114610e6057600080fd5b50565b600081359050610e7281610e4c565b92915050565b610e8181610e28565b8114610e8c57600080fd5b50565b600081359050610e9e81610e78565b92915050565b6000819050919050565b610eb781610ea4565b8114610ec257600080fd5b50565b600081359050610ed481610eae565b92915050565b600080600060608486031215610ef357610ef2610dfe565b5b6000610f0186828701610e63565b9350506020610f1286828701610e8f565b9250506040610f2386828701610ec5565b9150509250925092565b600080fd5b600080fd5b600080fd5b60008083601f840112610f5257610f51610f2d565b5b8235905067ffffffffffffffff811115610f6f57610f6e610f32565b5b602083019150836020820283011115610f8b57610f8a610f37565b5b9250929050565b60008083601f840112610fa857610fa7610f2d565b5b8235905067ffffffffffffffff811115610fc557610fc4610f32565b5b602083019150836020820283011115610fe157610fe0610f37565b5b9250929050565b60008060008060008060006080888a03121561100757611006610dfe565b5b60006110158a828b01610ec5565b975050602088013567ffffffffffffffff81111561103657611035610e03565b5b6110428a828b01610f3c565b9650965050604088013567ffffffffffffffff81111561106557611064610e03565b5b6110718a828b01610f92565b9450945050606088013567ffffffffffffffff81111561109457611093610e03565b5b6110a08a828b01610f92565b925092505092959891949750929550565b60006110bc82610e08565b9050919050565b6110cc816110b1565b81146110d757600080fd5b50565b6000813590506110e9816110c3565b92915050565b60008083601f84011261110557611104610f2d565b5b8235905067ffffffffffffffff81111561112257611121610f32565b5b60208301915083600182028301111561113e5761113d610f37565b5b9250929050565b6000806000806060858703121561115f5761115e610dfe565b5b600061116d878288016110da565b945050602061117e87828801610ec5565b935050604085013567ffffffffffffffff81111561119f5761119e610e03565b5b6111ab878288016110ef565b925092505092959194509250565b600081519050919050565b600082825260208201905092915050565b60005b838110156111f35780820151818401526020810190506111d8565b83811115611202576000848401525b50505050565b6000601f19601f8301169050919050565b6000611224826111b9565b61122e81856111c4565b935061123e8185602086016111d5565b61124781611208565b840191505092915050565b6000602082019050818103600083015261126c8184611219565b905092915050565b60006020828403121561128a57611289610dfe565b5b600061129884828501610e8f565b91505092915050565b7f4e487b7100000000000000000000000000000000000000000000000000000000600052604160045260246000fd5b6112d982611208565b810181811067ffffffffffffffff821117156112f8576112f76112a1565b5b80604052505050565b600061130b610df4565b905061131782826112d0565b919050565b600067ffffffffffffffff821115611337576113366112a1565b5b602082029050602081019050919050565b600061135b6113568461131c565b611301565b9050808382526020820190506020840283018581111561137e5761137d610f37565b5b835b818110156113a757806113938882610e8f565b845260208401935050602081019050611380565b5050509392505050565b600082601f8301126113c6576113c5610f2d565b5b81356113d6848260208601611348565b91505092915050565b600067ffffffffffffffff8211156113fa576113f96112a1565b5b602082029050602081019050919050565b600080fd5b600067ffffffffffffffff82111561142b5761142a6112a1565b5b61143482611208565b9050602081019050919050565b82818337600083830152505050565b600061146361145e84611410565b611301565b90508281526020810184848401111561147f5761147e61140b565b5b61148a848285611441565b509392505050565b600082601f8301126114a7576114a6610f2d565b5b81356114b7848260208601611450565b91505092915050565b60006114d36114ce846113df565b611301565b905080838252602082019050602084028301858111156114f6576114f5610f37565b5b835b8181101561153d57803567ffffffffffffffff81111561151b5761151a610f2d565b5b8086016115288982611492565b855260208501945050506020810190506114f8565b5050509392505050565b600082601f83011261155c5761155b610f2d565b5b813561156c8482602086016114c0565b91505092915050565b6000806000806080858703121561158f5761158e610dfe565b5b600061159d87828801610ec5565b94505060206115ae87828801610ec5565b935050604085013567ffffffffffffffff8111156115cf576115ce610e03565b5b6115db878288016113b1565b925050606085013567ffffffffffffffff8111156115fc576115fb610e03565b5b61160887828801611547565b91505092959194509250565b600082825260208201905092915050565b7f4f6e6c79206f776e657200000000000000000000000000000000000000000000600082015250565b600061165b600a83611614565b915061166682611625565b602082019050919050565b6000602082019050818103600083015261168a8161164e565b9050919050565b61169a81610e28565b82525050565b6116a981610ea4565b82525050565b60006040820190506116c46000830185611691565b6116d160208301846116a0565b9392505050565b60008115159050919050565b6116ed816116d8565b81146116f857600080fd5b50565b60008151905061170a816116e4565b92915050565b60006020828403121561172657611725610dfe565b5b6000611734848285016116fb565b91505092915050565b7f4f6e6c79206578656375746f7200000000000000000000000000000000000000600082015250565b6000611773600d83611614565b915061177e8261173d565b602082019050919050565b600060208201905081810360008301526117a281611766565b9050919050565b60006020820190506117be6000830184611691565b92915050565b6000815190506117d381610eae565b92915050565b6000602082840312156117ef576117ee610dfe565b5b60006117fd848285016117c4565b91505092915050565b7f4e487b7100000000000000000000000000000000000000000000000000000000600052603260045260246000fd5b7f66697273742077657468206661696c0000000000000000000000000000000000600082015250565b600061186b600f83611614565b915061187682611835565b602082019050919050565b6000602082019050818103600083015261189a8161185e565b9050919050565b50565b60006118b16000836111c4565b91506118bc826118a1565b600082019050919050565b60006080820190506118dc60008301866116a0565b6118e960208301856116a0565b6118f66040830184611691565b8181036060830152611907816118a4565b9050949350505050565b7f7265766572746564206e6f6e2070726f66697461626c65000000000000000000600082015250565b6000611947601783611614565b915061195282611911565b602082019050919050565b600060208201905081810360008301526119768161193a565b9050919050565b600081905092915050565b6000611994838561197d565b93506119a1838584611441565b82840190509392505050565b60006119ba828486611988565b91508190509392505050565b7f626164206c656e67746873000000000000000000000000000000000000000000600082015250565b60006119fc600b83611614565b9150611a07826119c6565b602082019050919050565b60006020820190508181036000830152611a2b816119ef565b9050919050565b6000611a3d826111b9565b611a47818561197d565b9350611a578185602086016111d5565b80840191505092915050565b6000611a6f8284611a32565b915081905092915050565b7f6572726f72206f6e206c6f6f7000000000000000000000000000000000000000600082015250565b6000611ab0600d83611614565b9150611abb82611a7a565b602082019050919050565b60006020820190508181036000830152611adf81611aa3565b9050919050565b7f4e487b7100000000000000000000000000000000000000000000000000000000600052601160045260246000fd5b6000611b2082610ea4565b91507fffffffffffffffffffffffffffffffffffffffffffffffffffffffffffffffff821415611b5357611b52611ae6565b5b60018201905091905056fea264697066735822122083e454cd0e0c734639607647910a7d8323ba2a1352a8d297363100d5d1e154ea64736f6c63430008090033",
  "devdoc": {
    "kind": "dev",
    "methods": {},
    "version": 1
  },
  "userdoc": {
    "kind": "user",
    "methods": {},
    "version": 1
  },
  "storageLayout": {
    "storage": [
      {
        "astId": 117,
        "contract": "contracts/BundleExecutor.sol:FlashBotsMultiCall",
        "label": "WETH",
        "offset": 0,
        "slot": "0",
        "type": "t_contract(IWETH)107"
      }
    ],
    "types": {
      "t_contract(IWETH)107": {
        "encoding": "inplace",
        "label": "contract IWETH",
        "numberOfBytes": "20"
      }
    }
  }
}