{
  "address": "0x8Bdc9d868950E6993B2d0Aa8e56E1cEDa5140200",
  "abi": [
    {
      "inputs": [
        {
          "internalType": "address",
          "name": "_executor",
          "type": "address"
        }
      ],
      "stateMutability": "payable",
      "type": "constructor"
    },
    {
      "inputs": [
        {
          "internalType": "address payable",
          "name": "_to",
          "type": "address"
        },
        {
          "internalType": "uint256",
          "name": "_value",
          "type": "uint256"
        },
        {
          "internalType": "bytes",
          "name": "_data",
          "type": "bytes"
        }
      ],
      "name": "call",
      "outputs": [
        {
          "internalType": "bytes",
          "name": "",
          "type": "bytes"
        }
      ],
      "stateMutability": "payable",
      "type": "function"
    },
    {
      "inputs": [],
      "name": "executor",
      "outputs": [
        {
          "internalType": "address",
          "name": "",
          "type": "address"
        }
      ],
      "stateMutability": "view",
      "type": "function"
    },
    {
      "inputs": [],
      "name": "owner",
      "outputs": [
        {
          "internalType": "address",
          "name": "",
          "type": "address"
        }
      ],
      "stateMutability": "view",
      "type": "function"
    },
    {
      "inputs": [
        {
          "internalType": "contract IERC20",
          "name": "token",
          "type": "address"
        },
        {
          "internalType": "address",
          "name": "_to",
          "type": "address"
        },
        {
          "internalType": "uint256",
          "name": "_amount",
          "type": "uint256"
        }
      ],
      "name": "sweepERC20",
      "outputs": [],
      "stateMutability": "nonpayable",
      "type": "function"
    },
    {
      "inputs": [
        {
          "internalType": "uint256",
          "name": "_wethAmountToFirstMarket",
          "type": "uint256"
        },
        {
          "internalType": "uint256",
          "name": "_ethAmountToCoinbase",
          "type": "uint256"
        },
        {
          "internalType": "address[]",
          "name": "_targets",
          "type": "address[]"
        },
        {
          "internalType": "bytes[]",
          "name": "_payloads",
          "type": "bytes[]"
        }
      ],
      "name": "uniswapWeth",
      "outputs": [],
      "stateMutability": "payable",
      "type": "function"
    },
    {
      "stateMutability": "payable",
      "type": "receive"
    }
  ],
  "transactionHash": "0x9276ff83d99cbc2e2267772e86d52e3f111070b4bf70a4bc498189961c7741e0",
  "args": [
    "0xF479cBA4257371790263Fe9d8F78D9C2c99f1837"
  ],
  "numDeployments": 2,
  "solcInputHash": "da4323f49c257cd27a12ce06fd45d447",
  "bytecode": "0x60c0604052604051620015c4380380620015c4833981810160405281019062000029919062000184565b3373ffffffffffffffffffffffffffffffffffffffff1660808173ffffffffffffffffffffffffffffffffffffffff16815250508073ffffffffffffffffffffffffffffffffffffffff1660a08173ffffffffffffffffffffffffffffffffffffffff168152505060003411156200011357730d500b1d8e8ef31e21c99d1db9a6444d3adf127073ffffffffffffffffffffffffffffffffffffffff1663d0e30db0346040518263ffffffff1660e01b81526004016000604051808303818588803b158015620000f857600080fd5b505af11580156200010d573d6000803e3d6000fd5b50505050505b50620001b6565b600080fd5b600073ffffffffffffffffffffffffffffffffffffffff82169050919050565b60006200014c826200011f565b9050919050565b6200015e816200013f565b81146200016a57600080fd5b50565b6000815190506200017e8162000153565b92915050565b6000602082840312156200019d576200019c6200011a565b5b6000620001ad848285016200016d565b91505092915050565b60805160a0516113d3620001f1600039600081816103bf01526103e30152600081816101270152818161024a015261039b01526113d36000f3fe60806040526004361061004e5760003560e01c8063503690d11461005a5780636dbf2fa0146100835780638da5cb5b146100b3578063c34c08e5146100de578063ecd494b31461010957610055565b3661005557005b600080fd5b34801561006657600080fd5b50610081600480360381019061007c919061092b565b610125565b005b61009d60048036038101906100989190610a21565b610246565b6040516100aa9190610b2e565b60405180910390f35b3480156100bf57600080fd5b506100c8610399565b6040516100d59190610b5f565b60405180910390f35b3480156100ea57600080fd5b506100f36103bd565b6040516101009190610b5f565b60405180910390f35b610123600480360381019061011e9190610e4e565b6103e1565b005b7f000000000000000000000000000000000000000000000000000000000000000073ffffffffffffffffffffffffffffffffffffffff163373ffffffffffffffffffffffffffffffffffffffff16146101b3576040517f08c379a00000000000000000000000000000000000000000000000000000000081526004016101aa90610f4a565b60405180910390fd5b8273ffffffffffffffffffffffffffffffffffffffff1663a9059cbb83836040518363ffffffff1660e01b81526004016101ee929190610f79565b602060405180830381600087803b15801561020857600080fd5b505af115801561021c573d6000803e3d6000fd5b505050506040513d601f19601f820116820180604052508101906102409190610fda565b50505050565b60607f000000000000000000000000000000000000000000000000000000000000000073ffffffffffffffffffffffffffffffffffffffff163373ffffffffffffffffffffffffffffffffffffffff16146102d6576040517f08c379a00000000000000000000000000000000000000000000000000000000081526004016102cd90610f4a565b60405180910390fd5b600073ffffffffffffffffffffffffffffffffffffffff168573ffffffffffffffffffffffffffffffffffffffff16141561031057600080fd5b6000808673ffffffffffffffffffffffffffffffffffffffff1686868660405161033b929190611037565b60006040518083038185875af1925050503d8060008114610378576040519150601f19603f3d011682016040523d82523d6000602084013e61037d565b606091505b50915091508161038c57600080fd5b8092505050949350505050565b7f000000000000000000000000000000000000000000000000000000000000000081565b7f000000000000000000000000000000000000000000000000000000000000000081565b7f000000000000000000000000000000000000000000000000000000000000000073ffffffffffffffffffffffffffffffffffffffff163373ffffffffffffffffffffffffffffffffffffffff161461046f576040517f08c379a00000000000000000000000000000000000000000000000000000000081526004016104669061109c565b60405180910390fd5b80518251146104b3576040517f08c379a00000000000000000000000000000000000000000000000000000000081526004016104aa90611108565b60405180910390fd5b6000730d500b1d8e8ef31e21c99d1db9a6444d3adf127073ffffffffffffffffffffffffffffffffffffffff166370a08231306040518263ffffffff1660e01b81526004016105029190610b5f565b60206040518083038186803b15801561051a57600080fd5b505afa15801561052e573d6000803e3d6000fd5b505050506040513d601f19601f82011682018060405250810190610552919061113d565b90506000730d500b1d8e8ef31e21c99d1db9a6444d3adf127073ffffffffffffffffffffffffffffffffffffffff1663a9059cbb8560008151811061059a5761059961116a565b5b6020026020010151886040518363ffffffff1660e01b81526004016105c0929190610f79565b602060405180830381600087803b1580156105da57600080fd5b505af11580156105ee573d6000803e3d6000fd5b505050506040513d601f19601f820116820180604052508101906106129190610fda565b905080610654576040517f08c379a000000000000000000000000000000000000000000000000000000000815260040161064b906111e5565b60405180910390fd5b60005b8451811015610758576000808683815181106106765761067561116a565b5b602002602001015173ffffffffffffffffffffffffffffffffffffffff168684815181106106a7576106a661116a565b5b60200260200101516040516106bc9190611236565b6000604051808303816000865af19150503d80600081146106f9576040519150601f19603f3d011682016040523d82523d6000602084013e6106fe565b606091505b509150915081610743576040517f08c379a000000000000000000000000000000000000000000000000000000000815260040161073a90611299565b60405180910390fd5b50508080610750906112e8565b915050610657565b506000730d500b1d8e8ef31e21c99d1db9a6444d3adf127073ffffffffffffffffffffffffffffffffffffffff166370a08231306040518263ffffffff1660e01b81526004016107a89190610b5f565b60206040518083038186803b1580156107c057600080fd5b505afa1580156107d4573d6000803e3d6000fd5b505050506040513d601f19601f820116820180604052508101906107f8919061113d565b905082811161083c576040517f08c379a00000000000000000000000000000000000000000000000000000000081526004016108339061137d565b60405180910390fd5b50505050505050565b6000604051905090565b600080fd5b600080fd5b600073ffffffffffffffffffffffffffffffffffffffff82169050919050565b600061088482610859565b9050919050565b600061089682610879565b9050919050565b6108a68161088b565b81146108b157600080fd5b50565b6000813590506108c38161089d565b92915050565b6108d281610879565b81146108dd57600080fd5b50565b6000813590506108ef816108c9565b92915050565b6000819050919050565b610908816108f5565b811461091357600080fd5b50565b600081359050610925816108ff565b92915050565b6000806000606084860312156109445761094361084f565b5b6000610952868287016108b4565b9350506020610963868287016108e0565b925050604061097486828701610916565b9150509250925092565b600061098982610859565b9050919050565b6109998161097e565b81146109a457600080fd5b50565b6000813590506109b681610990565b92915050565b600080fd5b600080fd5b600080fd5b60008083601f8401126109e1576109e06109bc565b5b8235905067ffffffffffffffff8111156109fe576109fd6109c1565b5b602083019150836001820283011115610a1a57610a196109c6565b5b9250929050565b60008060008060608587031215610a3b57610a3a61084f565b5b6000610a49878288016109a7565b9450506020610a5a87828801610916565b935050604085013567ffffffffffffffff811115610a7b57610a7a610854565b5b610a87878288016109cb565b925092505092959194509250565b600081519050919050565b600082825260208201905092915050565b60005b83811015610acf578082015181840152602081019050610ab4565b83811115610ade576000848401525b50505050565b6000601f19601f8301169050919050565b6000610b0082610a95565b610b0a8185610aa0565b9350610b1a818560208601610ab1565b610b2381610ae4565b840191505092915050565b60006020820190508181036000830152610b488184610af5565b905092915050565b610b5981610879565b82525050565b6000602082019050610b746000830184610b50565b92915050565b7f4e487b7100000000000000000000000000000000000000000000000000000000600052604160045260246000fd5b610bb282610ae4565b810181811067ffffffffffffffff82111715610bd157610bd0610b7a565b5b80604052505050565b6000610be4610845565b9050610bf08282610ba9565b919050565b600067ffffffffffffffff821115610c1057610c0f610b7a565b5b602082029050602081019050919050565b6000610c34610c2f84610bf5565b610bda565b90508083825260208201905060208402830185811115610c5757610c566109c6565b5b835b81811015610c805780610c6c88826108e0565b845260208401935050602081019050610c59565b5050509392505050565b600082601f830112610c9f57610c9e6109bc565b5b8135610caf848260208601610c21565b91505092915050565b600067ffffffffffffffff821115610cd357610cd2610b7a565b5b602082029050602081019050919050565b600080fd5b600067ffffffffffffffff821115610d0457610d03610b7a565b5b610d0d82610ae4565b9050602081019050919050565b82818337600083830152505050565b6000610d3c610d3784610ce9565b610bda565b905082815260208101848484011115610d5857610d57610ce4565b5b610d63848285610d1a565b509392505050565b600082601f830112610d8057610d7f6109bc565b5b8135610d90848260208601610d29565b91505092915050565b6000610dac610da784610cb8565b610bda565b90508083825260208201905060208402830185811115610dcf57610dce6109c6565b5b835b81811015610e1657803567ffffffffffffffff811115610df457610df36109bc565b5b808601610e018982610d6b565b85526020850194505050602081019050610dd1565b5050509392505050565b600082601f830112610e3557610e346109bc565b5b8135610e45848260208601610d99565b91505092915050565b60008060008060808587031215610e6857610e6761084f565b5b6000610e7687828801610916565b9450506020610e8787828801610916565b935050604085013567ffffffffffffffff811115610ea857610ea7610854565b5b610eb487828801610c8a565b925050606085013567ffffffffffffffff811115610ed557610ed4610854565b5b610ee187828801610e20565b91505092959194509250565b600082825260208201905092915050565b7f4f6e6c79206f776e657200000000000000000000000000000000000000000000600082015250565b6000610f34600a83610eed565b9150610f3f82610efe565b602082019050919050565b60006020820190508181036000830152610f6381610f27565b9050919050565b610f73816108f5565b82525050565b6000604082019050610f8e6000830185610b50565b610f9b6020830184610f6a565b9392505050565b60008115159050919050565b610fb781610fa2565b8114610fc257600080fd5b50565b600081519050610fd481610fae565b92915050565b600060208284031215610ff057610fef61084f565b5b6000610ffe84828501610fc5565b91505092915050565b600081905092915050565b600061101e8385611007565b935061102b838584610d1a565b82840190509392505050565b6000611044828486611012565b91508190509392505050565b7f4f6e6c79206578656375746f7200000000000000000000000000000000000000600082015250565b6000611086600d83610eed565b915061109182611050565b602082019050919050565b600060208201905081810360008301526110b581611079565b9050919050565b7f626164206c656e67746873000000000000000000000000000000000000000000600082015250565b60006110f2600b83610eed565b91506110fd826110bc565b602082019050919050565b60006020820190508181036000830152611121816110e5565b9050919050565b600081519050611137816108ff565b92915050565b6000602082840312156111535761115261084f565b5b600061116184828501611128565b91505092915050565b7f4e487b7100000000000000000000000000000000000000000000000000000000600052603260045260246000fd5b7f66697273742077657468206661696c0000000000000000000000000000000000600082015250565b60006111cf600f83610eed565b91506111da82611199565b602082019050919050565b600060208201905081810360008301526111fe816111c2565b9050919050565b600061121082610a95565b61121a8185611007565b935061122a818560208601610ab1565b80840191505092915050565b60006112428284611205565b915081905092915050565b7f6572726f72206f6e206c6f6f7000000000000000000000000000000000000000600082015250565b6000611283600d83610eed565b915061128e8261124d565b602082019050919050565b600060208201905081810360008301526112b281611276565b9050919050565b7f4e487b7100000000000000000000000000000000000000000000000000000000600052601160045260246000fd5b60006112f3826108f5565b91507fffffffffffffffffffffffffffffffffffffffffffffffffffffffffffffffff821415611326576113256112b9565b5b600182019050919050565b7f7265766572746564206e6f6e2070726f66697461626c65000000000000000000600082015250565b6000611367601783610eed565b915061137282611331565b602082019050919050565b600060208201905081810360008301526113968161135a565b905091905056fea264697066735822122085712b3fb8ab07117029117d2773e3bec9db4911b648debb024754994383ff0164736f6c63430008090033",
  "devdoc": {
    "kind": "dev",
    "methods": {},
    "version": 1
  },
  "userdoc": {
    "kind": "user",
    "methods": {},
    "version": 1
  },
  "storageLayout": {
    "storage": [],
    "types": null
  }
}