{
  "address": "0x9C7FfE06A4c5C58A5D60bC95baAb56F558A4dACf",
  "abi": [
    {
      "inputs": [
        {
          "internalType": "contract UniswapV2Factory",
          "name": "_uniswapFactory",
          "type": "address"
        }
      ],
      "name": "getAllPairsLength",
      "outputs": [
        {
          "internalType": "uint256",
          "name": "",
          "type": "uint256"
        }
      ],
      "stateMutability": "view",
      "type": "function"
    },
    {
      "inputs": [
        {
          "internalType": "contract UniswapV2Factory",
          "name": "_uniswapFactory",
          "type": "address"
        },
        {
          "internalType": "uint256",
          "name": "_start",
          "type": "uint256"
        },
        {
          "internalType": "uint256",
          "name": "_stop",
          "type": "uint256"
        }
      ],
      "name": "getPairsByIndexRange",
      "outputs": [
        {
          "internalType": "address[3][]",
          "name": "",
          "type": "address[3][]"
        }
      ],
      "stateMutability": "view",
      "type": "function"
    },
    {
      "inputs": [
        {
          "internalType": "contract IUniswapV2Pair[]",
          "name": "_pairs",
          "type": "address[]"
        }
      ],
      "name": "getReservesByPairs",
      "outputs": [
        {
          "internalType": "uint256[3][]",
          "name": "",
          "type": "uint256[3][]"
        }
      ],
      "stateMutability": "view",
      "type": "function"
    }
  ],
  "transactionHash": "0xec692f091ebca57f74462e3175fe95c9b0610c75c1051f26b8023ec212bbbeca",
  "args": [],
  "numDeployments": 1,
  "solcInputHash": "a1e5c5595b7aa7906a6312120a34fc1c",
  "bytecode": "0x608060405234801561001057600080fd5b506110c6806100206000396000f3fe608060405234801561001057600080fd5b50600436106100415760003560e01c80634dbf0f3914610046578063ab2217e414610076578063c529447f146100a6575b600080fd5b610060600480360381019061005b9190610843565b6100d6565b60405161006d91906109f4565b60405180910390f35b610090600480360381019061008b9190610ab2565b6102d8565b60405161009d9190610c5f565b60405180910390f35b6100c060048036038101906100bb9190610c81565b610704565b6040516100cd9190610cbd565b60405180910390f35b606060008383905067ffffffffffffffff8111156100f7576100f6610cd8565b5b60405190808252806020026020018201604052801561013057816020015b61011d610790565b8152602001906001900390816101155790505b50905060005b848490508110156102cd5784848281811061015457610153610d07565b5b90506020020160208101906101699190610d74565b73ffffffffffffffffffffffffffffffffffffffff16630902f1ac6040518163ffffffff1660e01b815260040160606040518083038186803b1580156101ae57600080fd5b505afa1580156101c2573d6000803e3d6000fd5b505050506040513d601f19601f820116820180604052508101906101e69190610e23565b826dffffffffffffffffffffffffffff169250816dffffffffffffffffffffffffffff1691508063ffffffff16905084848151811061022857610227610d07565b5b602002602001015160006003811061024357610242610d07565b5b6020020185858151811061025a57610259610d07565b5b602002602001015160016003811061027557610274610d07565b5b6020020186868151811061028c5761028b610d07565b5b60200260200101516002600381106102a7576102a6610d07565b5b6020020183815250838152508381525050505080806102c590610ea5565b915050610136565b508091505092915050565b606060008473ffffffffffffffffffffffffffffffffffffffff1663574f2ba36040518163ffffffff1660e01b815260040160206040518083038186803b15801561032257600080fd5b505afa158015610336573d6000803e3d6000fd5b505050506040513d601f19601f8201168201806040525081019061035a9190610f03565b905080831115610368578092505b838310156103ab576040517f08c379a00000000000000000000000000000000000000000000000000000000081526004016103a290610f8d565b60405180910390fd5b600084846103b99190610fad565b905060008167ffffffffffffffff8111156103d7576103d6610cd8565b5b60405190808252806020026020018201604052801561041057816020015b6103fd6107b2565b8152602001906001900390816103f55790505b50905060005b828110156106f65760008873ffffffffffffffffffffffffffffffffffffffff16631e3dd18b838a6104489190610fe1565b6040518263ffffffff1660e01b81526004016104649190610cbd565b60206040518083038186803b15801561047c57600080fd5b505afa158015610490573d6000803e3d6000fd5b505050506040513d601f19601f820116820180604052508101906104b49190611063565b90508073ffffffffffffffffffffffffffffffffffffffff16630dfe16816040518163ffffffff1660e01b815260040160206040518083038186803b1580156104fc57600080fd5b505afa158015610510573d6000803e3d6000fd5b505050506040513d601f19601f820116820180604052508101906105349190611063565b83838151811061054757610546610d07565b5b602002602001015160006003811061056257610561610d07565b5b602002019073ffffffffffffffffffffffffffffffffffffffff16908173ffffffffffffffffffffffffffffffffffffffff16815250508073ffffffffffffffffffffffffffffffffffffffff1663d21220a76040518163ffffffff1660e01b815260040160206040518083038186803b1580156105df57600080fd5b505afa1580156105f3573d6000803e3d6000fd5b505050506040513d601f19601f820116820180604052508101906106179190611063565b83838151811061062a57610629610d07565b5b602002602001015160016003811061064557610644610d07565b5b602002019073ffffffffffffffffffffffffffffffffffffffff16908173ffffffffffffffffffffffffffffffffffffffff1681525050808383815181106106905761068f610d07565b5b60200260200101516002600381106106ab576106aa610d07565b5b602002019073ffffffffffffffffffffffffffffffffffffffff16908173ffffffffffffffffffffffffffffffffffffffff16815250505080806106ee90610ea5565b915050610416565b508093505050509392505050565b6000808273ffffffffffffffffffffffffffffffffffffffff1663574f2ba36040518163ffffffff1660e01b815260040160206040518083038186803b15801561074d57600080fd5b505afa158015610761573d6000803e3d6000fd5b505050506040513d601f19601f820116820180604052508101906107859190610f03565b905080915050919050565b6040518060600160405280600390602082028036833780820191505090505090565b6040518060600160405280600390602082028036833780820191505090505090565b600080fd5b600080fd5b600080fd5b600080fd5b600080fd5b60008083601f840112610803576108026107de565b5b8235905067ffffffffffffffff8111156108205761081f6107e3565b5b60208301915083602082028301111561083c5761083b6107e8565b5b9250929050565b6000806020838503121561085a576108596107d4565b5b600083013567ffffffffffffffff811115610878576108776107d9565b5b610884858286016107ed565b92509250509250929050565b600081519050919050565b600082825260208201905092915050565b6000819050602082019050919050565b600060039050919050565b600081905092915050565b6000819050919050565b6000819050919050565b6108ef816108dc565b82525050565b600061090183836108e6565b60208301905092915050565b6000602082019050919050565b610923816108bc565b61092d81846108c7565b9250610938826108d2565b8060005b8381101561096957815161095087826108f5565b965061095b8361090d565b92505060018101905061093c565b505050505050565b600061097d838361091a565b60608301905092915050565b6000602082019050919050565b60006109a182610890565b6109ab818561089b565b93506109b6836108ac565b8060005b838110156109e75781516109ce8882610971565b97506109d983610989565b9250506001810190506109ba565b5085935050505092915050565b60006020820190508181036000830152610a0e8184610996565b905092915050565b600073ffffffffffffffffffffffffffffffffffffffff82169050919050565b6000610a4182610a16565b9050919050565b6000610a5382610a36565b9050919050565b610a6381610a48565b8114610a6e57600080fd5b50565b600081359050610a8081610a5a565b92915050565b610a8f816108dc565b8114610a9a57600080fd5b50565b600081359050610aac81610a86565b92915050565b600080600060608486031215610acb57610aca6107d4565b5b6000610ad986828701610a71565b9350506020610aea86828701610a9d565b9250506040610afb86828701610a9d565b9150509250925092565b600081519050919050565b600082825260208201905092915050565b6000819050602082019050919050565b600060039050919050565b600081905092915050565b6000819050919050565b610b5a81610a36565b82525050565b6000610b6c8383610b51565b60208301905092915050565b6000602082019050919050565b610b8e81610b31565b610b988184610b3c565b9250610ba382610b47565b8060005b83811015610bd4578151610bbb8782610b60565b9650610bc683610b78565b925050600181019050610ba7565b505050505050565b6000610be88383610b85565b60608301905092915050565b6000602082019050919050565b6000610c0c82610b05565b610c168185610b10565b9350610c2183610b21565b8060005b83811015610c52578151610c398882610bdc565b9750610c4483610bf4565b925050600181019050610c25565b5085935050505092915050565b60006020820190508181036000830152610c798184610c01565b905092915050565b600060208284031215610c9757610c966107d4565b5b6000610ca584828501610a71565b91505092915050565b610cb7816108dc565b82525050565b6000602082019050610cd26000830184610cae565b92915050565b7f4e487b7100000000000000000000000000000000000000000000000000000000600052604160045260246000fd5b7f4e487b7100000000000000000000000000000000000000000000000000000000600052603260045260246000fd5b6000610d4182610a36565b9050919050565b610d5181610d36565b8114610d5c57600080fd5b50565b600081359050610d6e81610d48565b92915050565b600060208284031215610d8a57610d896107d4565b5b6000610d9884828501610d5f565b91505092915050565b60006dffffffffffffffffffffffffffff82169050919050565b610dc481610da1565b8114610dcf57600080fd5b50565b600081519050610de181610dbb565b92915050565b600063ffffffff82169050919050565b610e0081610de7565b8114610e0b57600080fd5b50565b600081519050610e1d81610df7565b92915050565b600080600060608486031215610e3c57610e3b6107d4565b5b6000610e4a86828701610dd2565b9350506020610e5b86828701610dd2565b9250506040610e6c86828701610e0e565b9150509250925092565b7f4e487b7100000000000000000000000000000000000000000000000000000000600052601160045260246000fd5b6000610eb0826108dc565b91507fffffffffffffffffffffffffffffffffffffffffffffffffffffffffffffffff821415610ee357610ee2610e76565b5b600182019050919050565b600081519050610efd81610a86565b92915050565b600060208284031215610f1957610f186107d4565b5b6000610f2784828501610eee565b91505092915050565b600082825260208201905092915050565b7f73746172742063616e6e6f7420626520686967686572207468616e2073746f70600082015250565b6000610f77602083610f30565b9150610f8282610f41565b602082019050919050565b60006020820190508181036000830152610fa681610f6a565b9050919050565b6000610fb8826108dc565b9150610fc3836108dc565b925082821015610fd657610fd5610e76565b5b828203905092915050565b6000610fec826108dc565b9150610ff7836108dc565b9250827fffffffffffffffffffffffffffffffffffffffffffffffffffffffffffffffff0382111561102c5761102b610e76565b5b828201905092915050565b61104081610a36565b811461104b57600080fd5b50565b60008151905061105d81611037565b92915050565b600060208284031215611079576110786107d4565b5b60006110878482850161104e565b9150509291505056fea264697066735822122007928865335131a37ad40fccf0693b089a623e7898735b886529e41617bbeb7164736f6c63430008090033",
  "devdoc": {
    "kind": "dev",
    "methods": {},
    "version": 1
  },
  "userdoc": {
    "kind": "user",
    "methods": {},
    "version": 1
  },
  "storageLayout": {
    "storage": [],
    "types": null
  }
}