{
  "address": "0x149b79a157F1DDe45374Dca149CA6f8A7735b1ED",
  "abi": [
    {
      "inputs": [
        {
          "internalType": "address",
          "name": "_executor",
          "type": "address"
        }
      ],
      "stateMutability": "payable",
      "type": "constructor"
    },
    {
      "inputs": [
        {
          "internalType": "address payable",
          "name": "_to",
          "type": "address"
        },
        {
          "internalType": "uint256",
          "name": "_value",
          "type": "uint256"
        },
        {
          "internalType": "bytes",
          "name": "_data",
          "type": "bytes"
        }
      ],
      "name": "call",
      "outputs": [
        {
          "internalType": "bytes",
          "name": "",
          "type": "bytes"
        }
      ],
      "stateMutability": "payable",
      "type": "function"
    },
    {
      "inputs": [],
      "name": "executor",
      "outputs": [
        {
          "internalType": "address",
          "name": "",
          "type": "address"
        }
      ],
      "stateMutability": "view",
      "type": "function"
    },
    {
      "inputs": [],
      "name": "owner",
      "outputs": [
        {
          "internalType": "address",
          "name": "",
          "type": "address"
        }
      ],
      "stateMutability": "view",
      "type": "function"
    },
    {
      "inputs": [
        {
          "internalType": "address",
          "name": "_to",
          "type": "address"
        },
        {
          "internalType": "uint256",
          "name": "_amount",
          "type": "uint256"
        }
      ],
      "name": "sweepERC20",
      "outputs": [],
      "stateMutability": "nonpayable",
      "type": "function"
    },
    {
      "inputs": [
        {
          "internalType": "uint256",
          "name": "_wethAmountToFirstMarket",
          "type": "uint256"
        },
        {
          "internalType": "uint256",
          "name": "_ethAmountToCoinbase",
          "type": "uint256"
        },
        {
          "internalType": "address[]",
          "name": "_targets",
          "type": "address[]"
        },
        {
          "internalType": "bytes[]",
          "name": "_payloads",
          "type": "bytes[]"
        }
      ],
      "name": "uniswapWeth",
      "outputs": [],
      "stateMutability": "payable",
      "type": "function"
    },
    {
      "stateMutability": "payable",
      "type": "receive"
    }
  ],
  "transactionHash": "0x08bc14210d71726d51eed7bc1828a4cc899c186fca2634b087b6d2e4819546e5",
  "args": [
    "0xF479cBA4257371790263Fe9d8F78D9C2c99f1837"
  ],
  "numDeployments": 5,
  "solcInputHash": "1bed6229e904cc5d84fed0806fb660c2",
  "bytecode": "0x60c06040526040516200167738038062001677833981810160405281019062000029919062000184565b3373ffffffffffffffffffffffffffffffffffffffff1660808173ffffffffffffffffffffffffffffffffffffffff16815250508073ffffffffffffffffffffffffffffffffffffffff1660a08173ffffffffffffffffffffffffffffffffffffffff168152505060003411156200011357739c3c9283d3e44854697cd22d3faa240cfb03288973ffffffffffffffffffffffffffffffffffffffff1663d0e30db0346040518263ffffffff1660e01b81526004016000604051808303818588803b158015620000f857600080fd5b505af11580156200010d573d6000803e3d6000fd5b50505050505b50620001b6565b600080fd5b600073ffffffffffffffffffffffffffffffffffffffff82169050919050565b60006200014c826200011f565b9050919050565b6200015e816200013f565b81146200016a57600080fd5b50565b6000815190506200017e8162000153565b92915050565b6000602082840312156200019d576200019c6200011a565b5b6000620001ad848285016200016d565b91505092915050565b60805160a051611486620001f16000396000818161029e01526103f60152600081816101290152818161027a01526102c201526114866000f3fe60806040526004361061004e5760003560e01c80636dbf2fa01461005a5780638da5cb5b1461008a578063c34c08e5146100b5578063e6d11999146100e0578063ecd494b31461010957610055565b3661005557005b600080fd5b610074600480360381019061006f9190610a1d565b610125565b6040516100819190610b2a565b60405180910390f35b34801561009657600080fd5b5061009f610278565b6040516100ac9190610b6d565b60405180910390f35b3480156100c157600080fd5b506100ca61029c565b6040516100d79190610b6d565b60405180910390f35b3480156100ec57600080fd5b5061010760048036038101906101029190610bb4565b6102c0565b005b610123600480360381019061011e9190610ec8565b6103f4565b005b60607f000000000000000000000000000000000000000000000000000000000000000073ffffffffffffffffffffffffffffffffffffffff163373ffffffffffffffffffffffffffffffffffffffff16146101b5576040517f08c379a00000000000000000000000000000000000000000000000000000000081526004016101ac90610fc4565b60405180910390fd5b600073ffffffffffffffffffffffffffffffffffffffff168573ffffffffffffffffffffffffffffffffffffffff1614156101ef57600080fd5b6000808673ffffffffffffffffffffffffffffffffffffffff1686868660405161021a929190611014565b60006040518083038185875af1925050503d8060008114610257576040519150601f19603f3d011682016040523d82523d6000602084013e61025c565b606091505b50915091508161026b57600080fd5b8092505050949350505050565b7f000000000000000000000000000000000000000000000000000000000000000081565b7f000000000000000000000000000000000000000000000000000000000000000081565b7f000000000000000000000000000000000000000000000000000000000000000073ffffffffffffffffffffffffffffffffffffffff163373ffffffffffffffffffffffffffffffffffffffff161461034e576040517f08c379a000000000000000000000000000000000000000000000000000000000815260040161034590610fc4565b60405180910390fd5b739c3c9283d3e44854697cd22d3faa240cfb03288973ffffffffffffffffffffffffffffffffffffffff1663a9059cbb83836040518363ffffffff1660e01b815260040161039d92919061103c565b602060405180830381600087803b1580156103b757600080fd5b505af11580156103cb573d6000803e3d6000fd5b505050506040513d601f19601f820116820180604052508101906103ef919061109d565b505050565b7f000000000000000000000000000000000000000000000000000000000000000073ffffffffffffffffffffffffffffffffffffffff163373ffffffffffffffffffffffffffffffffffffffff1614610482576040517f08c379a000000000000000000000000000000000000000000000000000000000815260040161047990611116565b60405180910390fd5b80518251146104c6576040517f08c379a00000000000000000000000000000000000000000000000000000000081526004016104bd90611182565b60405180910390fd5b6000739c3c9283d3e44854697cd22d3faa240cfb03288973ffffffffffffffffffffffffffffffffffffffff166370a08231306040518263ffffffff1660e01b81526004016105159190610b6d565b60206040518083038186803b15801561052d57600080fd5b505afa158015610541573d6000803e3d6000fd5b505050506040513d601f19601f8201168201806040525081019061056591906111b7565b9050739c3c9283d3e44854697cd22d3faa240cfb03288973ffffffffffffffffffffffffffffffffffffffff1663a9059cbb846000815181106105ab576105aa6111e4565b5b6020026020010151876040518363ffffffff1660e01b81526004016105d192919061103c565b602060405180830381600087803b1580156105eb57600080fd5b505af11580156105ff573d6000803e3d6000fd5b505050506040513d601f19601f82011682018060405250810190610623919061109d565b5060005b835181101561072857600080858381518110610646576106456111e4565b5b602002602001015173ffffffffffffffffffffffffffffffffffffffff16858481518110610677576106766111e4565b5b602002602001015160405161068c9190611244565b6000604051808303816000865af19150503d80600081146106c9576040519150601f19603f3d011682016040523d82523d6000602084013e6106ce565b606091505b509150915081610713576040517f08c379a000000000000000000000000000000000000000000000000000000000815260040161070a906112a7565b60405180910390fd5b50508080610720906112f6565b915050610627565b506000739c3c9283d3e44854697cd22d3faa240cfb03288973ffffffffffffffffffffffffffffffffffffffff166370a08231306040518263ffffffff1660e01b81526004016107789190610b6d565b60206040518083038186803b15801561079057600080fd5b505afa1580156107a4573d6000803e3d6000fd5b505050506040513d601f19601f820116820180604052508101906107c891906111b7565b905084826107d6919061133f565b8111610817576040517f08c379a000000000000000000000000000000000000000000000000000000000815260040161080e906113e1565b60405180910390fd5b600085141561082757505061090a565b6000479050858110156108bf57739c3c9283d3e44854697cd22d3faa240cfb03288973ffffffffffffffffffffffffffffffffffffffff16632e1a7d4d82886108709190611401565b6040518263ffffffff1660e01b815260040161088c9190611435565b600060405180830381600087803b1580156108a657600080fd5b505af11580156108ba573d6000803e3d6000fd5b505050505b4173ffffffffffffffffffffffffffffffffffffffff166108fc879081150290604051600060405180830381858888f19350505050158015610905573d6000803e3d6000fd5b505050505b50505050565b6000604051905090565b600080fd5b600080fd5b600073ffffffffffffffffffffffffffffffffffffffff82169050919050565b600061094f82610924565b9050919050565b61095f81610944565b811461096a57600080fd5b50565b60008135905061097c81610956565b92915050565b6000819050919050565b61099581610982565b81146109a057600080fd5b50565b6000813590506109b28161098c565b92915050565b600080fd5b600080fd5b600080fd5b60008083601f8401126109dd576109dc6109b8565b5b8235905067ffffffffffffffff8111156109fa576109f96109bd565b5b602083019150836001820283011115610a1657610a156109c2565b5b9250929050565b60008060008060608587031215610a3757610a3661091a565b5b6000610a458782880161096d565b9450506020610a56878288016109a3565b935050604085013567ffffffffffffffff811115610a7757610a7661091f565b5b610a83878288016109c7565b925092505092959194509250565b600081519050919050565b600082825260208201905092915050565b60005b83811015610acb578082015181840152602081019050610ab0565b83811115610ada576000848401525b50505050565b6000601f19601f8301169050919050565b6000610afc82610a91565b610b068185610a9c565b9350610b16818560208601610aad565b610b1f81610ae0565b840191505092915050565b60006020820190508181036000830152610b448184610af1565b905092915050565b6000610b5782610924565b9050919050565b610b6781610b4c565b82525050565b6000602082019050610b826000830184610b5e565b92915050565b610b9181610b4c565b8114610b9c57600080fd5b50565b600081359050610bae81610b88565b92915050565b60008060408385031215610bcb57610bca61091a565b5b6000610bd985828601610b9f565b9250506020610bea858286016109a3565b9150509250929050565b7f4e487b7100000000000000000000000000000000000000000000000000000000600052604160045260246000fd5b610c2c82610ae0565b810181811067ffffffffffffffff82111715610c4b57610c4a610bf4565b5b80604052505050565b6000610c5e610910565b9050610c6a8282610c23565b919050565b600067ffffffffffffffff821115610c8a57610c89610bf4565b5b602082029050602081019050919050565b6000610cae610ca984610c6f565b610c54565b90508083825260208201905060208402830185811115610cd157610cd06109c2565b5b835b81811015610cfa5780610ce68882610b9f565b845260208401935050602081019050610cd3565b5050509392505050565b600082601f830112610d1957610d186109b8565b5b8135610d29848260208601610c9b565b91505092915050565b600067ffffffffffffffff821115610d4d57610d4c610bf4565b5b602082029050602081019050919050565b600080fd5b600067ffffffffffffffff821115610d7e57610d7d610bf4565b5b610d8782610ae0565b9050602081019050919050565b82818337600083830152505050565b6000610db6610db184610d63565b610c54565b905082815260208101848484011115610dd257610dd1610d5e565b5b610ddd848285610d94565b509392505050565b600082601f830112610dfa57610df96109b8565b5b8135610e0a848260208601610da3565b91505092915050565b6000610e26610e2184610d32565b610c54565b90508083825260208201905060208402830185811115610e4957610e486109c2565b5b835b81811015610e9057803567ffffffffffffffff811115610e6e57610e6d6109b8565b5b808601610e7b8982610de5565b85526020850194505050602081019050610e4b565b5050509392505050565b600082601f830112610eaf57610eae6109b8565b5b8135610ebf848260208601610e13565b91505092915050565b60008060008060808587031215610ee257610ee161091a565b5b6000610ef0878288016109a3565b9450506020610f01878288016109a3565b935050604085013567ffffffffffffffff811115610f2257610f2161091f565b5b610f2e87828801610d04565b925050606085013567ffffffffffffffff811115610f4f57610f4e61091f565b5b610f5b87828801610e9a565b91505092959194509250565b600082825260208201905092915050565b7f4f6e6c79206f776e657200000000000000000000000000000000000000000000600082015250565b6000610fae600a83610f67565b9150610fb982610f78565b602082019050919050565b60006020820190508181036000830152610fdd81610fa1565b9050919050565b600081905092915050565b6000610ffb8385610fe4565b9350611008838584610d94565b82840190509392505050565b6000611021828486610fef565b91508190509392505050565b61103681610982565b82525050565b60006040820190506110516000830185610b5e565b61105e602083018461102d565b9392505050565b60008115159050919050565b61107a81611065565b811461108557600080fd5b50565b60008151905061109781611071565b92915050565b6000602082840312156110b3576110b261091a565b5b60006110c184828501611088565b91505092915050565b7f4f6e6c79206578656375746f7200000000000000000000000000000000000000600082015250565b6000611100600d83610f67565b915061110b826110ca565b602082019050919050565b6000602082019050818103600083015261112f816110f3565b9050919050565b7f626164206c656e67746873000000000000000000000000000000000000000000600082015250565b600061116c600b83610f67565b915061117782611136565b602082019050919050565b6000602082019050818103600083015261119b8161115f565b9050919050565b6000815190506111b18161098c565b92915050565b6000602082840312156111cd576111cc61091a565b5b60006111db848285016111a2565b91505092915050565b7f4e487b7100000000000000000000000000000000000000000000000000000000600052603260045260246000fd5b600061121e82610a91565b6112288185610fe4565b9350611238818560208601610aad565b80840191505092915050565b60006112508284611213565b915081905092915050565b7f6572726f72206f6e206c6f6f7000000000000000000000000000000000000000600082015250565b6000611291600d83610f67565b915061129c8261125b565b602082019050919050565b600060208201905081810360008301526112c081611284565b9050919050565b7f4e487b7100000000000000000000000000000000000000000000000000000000600052601160045260246000fd5b600061130182610982565b91507fffffffffffffffffffffffffffffffffffffffffffffffffffffffffffffffff821415611334576113336112c7565b5b600182019050919050565b600061134a82610982565b915061135583610982565b9250827fffffffffffffffffffffffffffffffffffffffffffffffffffffffffffffffff0382111561138a576113896112c7565b5b828201905092915050565b7f636f696e62617365206661696c00000000000000000000000000000000000000600082015250565b60006113cb600d83610f67565b91506113d682611395565b602082019050919050565b600060208201905081810360008301526113fa816113be565b9050919050565b600061140c82610982565b915061141783610982565b92508282101561142a576114296112c7565b5b828203905092915050565b600060208201905061144a600083018461102d565b9291505056fea2646970667358221220026d9bf0b60c63c9837778130f862186e31e3f90a196fb9df23f68b0456df52a64736f6c63430008090033",
  "devdoc": {
    "kind": "dev",
    "methods": {},
    "version": 1
  },
  "userdoc": {
    "kind": "user",
    "methods": {},
    "version": 1
  },
  "storageLayout": {
    "storage": [],
    "types": null
  }
}