{
  "address": "0x3060307BaDA5370D2DbF2f52640CC91975394de3",
  "abi": [
    {
      "inputs": [
        {
          "internalType": "contract UniswapV2Factory",
          "name": "_uniswapFactory",
          "type": "address"
        },
        {
          "internalType": "uint256",
          "name": "_start",
          "type": "uint256"
        },
        {
          "internalType": "uint256",
          "name": "_stop",
          "type": "uint256"
        }
      ],
      "name": "getPairsByIndexRange",
      "outputs": [
        {
          "internalType": "address[3][]",
          "name": "",
          "type": "address[3][]"
        }
      ],
      "stateMutability": "view",
      "type": "function"
    },
    {
      "inputs": [
        {
          "internalType": "contract IUniswapV2Pair[]",
          "name": "_pairs",
          "type": "address[]"
        }
      ],
      "name": "getReservesByPairs",
      "outputs": [
        {
          "internalType": "uint256[3][]",
          "name": "",
          "type": "uint256[3][]"
        }
      ],
      "stateMutability": "view",
      "type": "function"
    }
  ],
  "transactionHash": "0xc4a83148c4a3d8af931fabc42ec9f121815ff8738c3e8eea44e28c25e5de52a8",
  "args": [],
  "numDeployments": 1,
  "solcInputHash": "ea562d92f9f3309f47de2cc2388cde03",
  "bytecode": "0x608060405234801561001057600080fd5b50610fd2806100206000396000f3fe608060405234801561001057600080fd5b50600436106100365760003560e01c80634dbf0f391461003b578063ab2217e41461006b575b600080fd5b6100556004803603810190610050919061077c565b61009b565b604051610062919061092d565b60405180910390f35b610085600480360381019061008091906109eb565b61029d565b6040516100929190610b98565b60405180910390f35b606060008383905067ffffffffffffffff8111156100bc576100bb610bba565b5b6040519080825280602002602001820160405280156100f557816020015b6100e26106c9565b8152602001906001900390816100da5790505b50905060005b848490508110156102925784848281811061011957610118610be9565b5b905060200201602081019061012e9190610c56565b73ffffffffffffffffffffffffffffffffffffffff16630902f1ac6040518163ffffffff1660e01b815260040160606040518083038186803b15801561017357600080fd5b505afa158015610187573d6000803e3d6000fd5b505050506040513d601f19601f820116820180604052508101906101ab9190610d05565b826dffffffffffffffffffffffffffff169250816dffffffffffffffffffffffffffff1691508063ffffffff1690508484815181106101ed576101ec610be9565b5b602002602001015160006003811061020857610207610be9565b5b6020020185858151811061021f5761021e610be9565b5b602002602001015160016003811061023a57610239610be9565b5b6020020186868151811061025157610250610be9565b5b602002602001015160026003811061026c5761026b610be9565b5b60200201838152508381525083815250505050808061028a90610d87565b9150506100fb565b508091505092915050565b606060008473ffffffffffffffffffffffffffffffffffffffff1663574f2ba36040518163ffffffff1660e01b815260040160206040518083038186803b1580156102e757600080fd5b505afa1580156102fb573d6000803e3d6000fd5b505050506040513d601f19601f8201168201806040525081019061031f9190610de5565b90508083111561032d578092505b83831015610370576040517f08c379a000000000000000000000000000000000000000000000000000000000815260040161036790610e6f565b60405180910390fd5b6000848461037e9190610e8f565b905060008167ffffffffffffffff81111561039c5761039b610bba565b5b6040519080825280602002602001820160405280156103d557816020015b6103c26106eb565b8152602001906001900390816103ba5790505b50905060005b828110156106bb5760008873ffffffffffffffffffffffffffffffffffffffff16631e3dd18b838a61040d9190610ec3565b6040518263ffffffff1660e01b81526004016104299190610f28565b60206040518083038186803b15801561044157600080fd5b505afa158015610455573d6000803e3d6000fd5b505050506040513d601f19601f820116820180604052508101906104799190610f6f565b90508073ffffffffffffffffffffffffffffffffffffffff16630dfe16816040518163ffffffff1660e01b815260040160206040518083038186803b1580156104c157600080fd5b505afa1580156104d5573d6000803e3d6000fd5b505050506040513d601f19601f820116820180604052508101906104f99190610f6f565b83838151811061050c5761050b610be9565b5b602002602001015160006003811061052757610526610be9565b5b602002019073ffffffffffffffffffffffffffffffffffffffff16908173ffffffffffffffffffffffffffffffffffffffff16815250508073ffffffffffffffffffffffffffffffffffffffff1663d21220a76040518163ffffffff1660e01b815260040160206040518083038186803b1580156105a457600080fd5b505afa1580156105b8573d6000803e3d6000fd5b505050506040513d601f19601f820116820180604052508101906105dc9190610f6f565b8383815181106105ef576105ee610be9565b5b602002602001015160016003811061060a57610609610be9565b5b602002019073ffffffffffffffffffffffffffffffffffffffff16908173ffffffffffffffffffffffffffffffffffffffff16815250508083838151811061065557610654610be9565b5b60200260200101516002600381106106705761066f610be9565b5b602002019073ffffffffffffffffffffffffffffffffffffffff16908173ffffffffffffffffffffffffffffffffffffffff16815250505080806106b390610d87565b9150506103db565b508093505050509392505050565b6040518060600160405280600390602082028036833780820191505090505090565b6040518060600160405280600390602082028036833780820191505090505090565b600080fd5b600080fd5b600080fd5b600080fd5b600080fd5b60008083601f84011261073c5761073b610717565b5b8235905067ffffffffffffffff8111156107595761075861071c565b5b60208301915083602082028301111561077557610774610721565b5b9250929050565b600080602083850312156107935761079261070d565b5b600083013567ffffffffffffffff8111156107b1576107b0610712565b5b6107bd85828601610726565b92509250509250929050565b600081519050919050565b600082825260208201905092915050565b6000819050602082019050919050565b600060039050919050565b600081905092915050565b6000819050919050565b6000819050919050565b61082881610815565b82525050565b600061083a838361081f565b60208301905092915050565b6000602082019050919050565b61085c816107f5565b6108668184610800565b92506108718261080b565b8060005b838110156108a2578151610889878261082e565b965061089483610846565b925050600181019050610875565b505050505050565b60006108b68383610853565b60608301905092915050565b6000602082019050919050565b60006108da826107c9565b6108e481856107d4565b93506108ef836107e5565b8060005b8381101561092057815161090788826108aa565b9750610912836108c2565b9250506001810190506108f3565b5085935050505092915050565b6000602082019050818103600083015261094781846108cf565b905092915050565b600073ffffffffffffffffffffffffffffffffffffffff82169050919050565b600061097a8261094f565b9050919050565b600061098c8261096f565b9050919050565b61099c81610981565b81146109a757600080fd5b50565b6000813590506109b981610993565b92915050565b6109c881610815565b81146109d357600080fd5b50565b6000813590506109e5816109bf565b92915050565b600080600060608486031215610a0457610a0361070d565b5b6000610a12868287016109aa565b9350506020610a23868287016109d6565b9250506040610a34868287016109d6565b9150509250925092565b600081519050919050565b600082825260208201905092915050565b6000819050602082019050919050565b600060039050919050565b600081905092915050565b6000819050919050565b610a938161096f565b82525050565b6000610aa58383610a8a565b60208301905092915050565b6000602082019050919050565b610ac781610a6a565b610ad18184610a75565b9250610adc82610a80565b8060005b83811015610b0d578151610af48782610a99565b9650610aff83610ab1565b925050600181019050610ae0565b505050505050565b6000610b218383610abe565b60608301905092915050565b6000602082019050919050565b6000610b4582610a3e565b610b4f8185610a49565b9350610b5a83610a5a565b8060005b83811015610b8b578151610b728882610b15565b9750610b7d83610b2d565b925050600181019050610b5e565b5085935050505092915050565b60006020820190508181036000830152610bb28184610b3a565b905092915050565b7f4e487b7100000000000000000000000000000000000000000000000000000000600052604160045260246000fd5b7f4e487b7100000000000000000000000000000000000000000000000000000000600052603260045260246000fd5b6000610c238261096f565b9050919050565b610c3381610c18565b8114610c3e57600080fd5b50565b600081359050610c5081610c2a565b92915050565b600060208284031215610c6c57610c6b61070d565b5b6000610c7a84828501610c41565b91505092915050565b60006dffffffffffffffffffffffffffff82169050919050565b610ca681610c83565b8114610cb157600080fd5b50565b600081519050610cc381610c9d565b92915050565b600063ffffffff82169050919050565b610ce281610cc9565b8114610ced57600080fd5b50565b600081519050610cff81610cd9565b92915050565b600080600060608486031215610d1e57610d1d61070d565b5b6000610d2c86828701610cb4565b9350506020610d3d86828701610cb4565b9250506040610d4e86828701610cf0565b9150509250925092565b7f4e487b7100000000000000000000000000000000000000000000000000000000600052601160045260246000fd5b6000610d9282610815565b91507fffffffffffffffffffffffffffffffffffffffffffffffffffffffffffffffff821415610dc557610dc4610d58565b5b600182019050919050565b600081519050610ddf816109bf565b92915050565b600060208284031215610dfb57610dfa61070d565b5b6000610e0984828501610dd0565b91505092915050565b600082825260208201905092915050565b7f73746172742063616e6e6f7420626520686967686572207468616e2073746f70600082015250565b6000610e59602083610e12565b9150610e6482610e23565b602082019050919050565b60006020820190508181036000830152610e8881610e4c565b9050919050565b6000610e9a82610815565b9150610ea583610815565b925082821015610eb857610eb7610d58565b5b828203905092915050565b6000610ece82610815565b9150610ed983610815565b9250827fffffffffffffffffffffffffffffffffffffffffffffffffffffffffffffffff03821115610f0e57610f0d610d58565b5b828201905092915050565b610f2281610815565b82525050565b6000602082019050610f3d6000830184610f19565b92915050565b610f4c8161096f565b8114610f5757600080fd5b50565b600081519050610f6981610f43565b92915050565b600060208284031215610f8557610f8461070d565b5b6000610f9384828501610f5a565b9150509291505056fea264697066735822122039cfe07b053193859a4826cdf845a01911769c871ffcf7711a2b719be01cce1464736f6c63430008090033",
  "devdoc": {
    "kind": "dev",
    "methods": {},
    "version": 1
  },
  "userdoc": {
    "kind": "user",
    "methods": {},
    "version": 1
  },
  "storageLayout": {
    "storage": [],
    "types": null
  }
}