{
  "address": "0x3060307BaDA5370D2DbF2f52640CC91975394de3",
  "abi": [
    {
      "inputs": [
        {
          "internalType": "address",
          "name": "_executor",
          "type": "address"
        }
      ],
      "stateMutability": "nonpayable",
      "type": "constructor"
    },
    {
      "inputs": [],
      "name": "WETH",
      "outputs": [
        {
          "internalType": "contract IWETH",
          "name": "",
          "type": "address"
        }
      ],
      "stateMutability": "view",
      "type": "function"
    },
    {
      "inputs": [
        {
          "internalType": "uint256",
          "name": "_amountIn",
          "type": "uint256"
        },
        {
          "internalType": "address[]",
          "name": "_targets",
          "type": "address[]"
        },
        {
          "internalType": "uint256[2][]",
          "name": "_amountsOut",
          "type": "uint256[2][]"
        }
      ],
      "name": "hi",
      "outputs": [],
      "stateMutability": "nonpayable",
      "type": "function"
    },
    {
      "inputs": [
        {
          "internalType": "contract IERC20",
          "name": "token",
          "type": "address"
        },
        {
          "internalType": "address",
          "name": "_to",
          "type": "address"
        },
        {
          "internalType": "uint256",
          "name": "_amount",
          "type": "uint256"
        }
      ],
      "name": "s",
      "outputs": [],
      "stateMutability": "nonpayable",
      "type": "function"
    },
    {
      "inputs": [
        {
          "internalType": "address",
          "name": "_new",
          "type": "address"
        }
      ],
      "name": "setWeth",
      "outputs": [],
      "stateMutability": "nonpayable",
      "type": "function"
    }
  ],
  "transactionHash": "0x56078545e2f2c6352d06560d1dc67b220b690083840af535a6afbca00dee0f70",
  "args": [
    "0xF479cBA4257371790263Fe9d8F78D9C2c99f1837"
  ],
  "numDeployments": 1,
  "solcInputHash": "defc2972f15a78545cca025c00f68569",
  "bytecode": "0x60c0604052600080546001600160a01b031916730d500b1d8e8ef31e21c99d1db9a6444d3adf127017905534801561003657600080fd5b50604051610a21380380610a218339810160408190526100559161006a565b336080526001600160a01b031660a05261009a565b60006020828403121561007c57600080fd5b81516001600160a01b038116811461009357600080fd5b9392505050565b60805160a05161095c6100c5600039600061023f01526000818160c601526101b8015261095c6000f3fe608060405234801561001057600080fd5b506004361061004c5760003560e01c80634082869814610051578063ad5c464814610066578063b8d1452f14610095578063ea628049146100a8575b600080fd5b61006461005f366004610734565b6100bb565b005b600054610079906001600160a01b031681565b6040516001600160a01b03909116815260200160405180910390f35b6100646100a3366004610775565b6101ad565b6100646100b63660046107e5565b610234565b336001600160a01b037f000000000000000000000000000000000000000000000000000000000000000016146101255760405162461bcd60e51b815260206004820152600a60248201526927b7363c9037bbb732b960b11b60448201526064015b60405180910390fd5b60405163a9059cbb60e01b81526001600160a01b0383811660048301526024820183905284169063a9059cbb90604401602060405180830381600087803b15801561016f57600080fd5b505af1158015610183573d6000803e3d6000fd5b505050506040513d601f19601f820116820180604052508101906101a79190610890565b50505050565b336001600160a01b037f000000000000000000000000000000000000000000000000000000000000000016146102125760405162461bcd60e51b815260206004820152600a60248201526927b7363c9037bbb732b960b11b604482015260640161011c565b600080546001600160a01b0319166001600160a01b0392909216919091179055565b336001600160a01b037f0000000000000000000000000000000000000000000000000000000000000000161461029c5760405162461bcd60e51b815260206004820152600d60248201526c27b7363c9032bc32b1baba37b960991b604482015260640161011c565b600080546040516370a0823160e01b81523060048201526001600160a01b03909116906370a082319060240160206040518083038186803b1580156102e057600080fd5b505afa1580156102f4573d6000803e3d6000fd5b505050506040513d601f19601f8201168201806040525081019061031891906108b2565b600080549192506001600160a01b039091169063a9059cbb908790879081610342576103426108cb565b90506020020160208101906103579190610775565b6040516001600160e01b031960e084901b1681526001600160a01b03909116600482015260248101899052604401602060405180830381600087803b15801561039f57600080fd5b505af11580156103b3573d6000803e3d6000fd5b505050506040513d601f19601f820116820180604052508101906103d79190610890565b508360005b6103e76001836108f7565b81101561053857868682818110610400576104006108cb565b90506020020160208101906104159190610775565b6001600160a01b031663022c0d9f868684818110610435576104356108cb565b90506040020160006002811061044d5761044d6108cb565b6020020135878785818110610464576104646108cb565b90506040020160016002811061047c5761047c6108cb565b60200201358a8a61048e87600161090e565b81811061049d5761049d6108cb565b90506020020160208101906104b29190610775565b6040516001600160e01b031960e086901b168152600481019390935260248301919091526001600160a01b03166044820152608060648201526000608482015260a401600060405180830381600087803b15801561050f57600080fd5b505af1158015610523573d6000803e3d6000fd5b505050506105318160010190565b90506103dc565b5085856105466001846108f7565b818110610555576105556108cb565b905060200201602081019061056a9190610775565b6001600160a01b031663022c0d9f85856105856001866108f7565b818110610594576105946108cb565b9050604002016000600281106105ac576105ac6108cb565b602002013586866105be6001876108f7565b8181106105cd576105cd6108cb565b9050604002016001600281106105e5576105e56108cb565b6040516001600160e01b031960e086901b168152600481019390935260200201356024820152306044820152608060648201526000608482015260a401600060405180830381600087803b15801561063c57600080fd5b505af1158015610650573d6000803e3d6000fd5b5050600080546040516370a0823160e01b81523060048201529193506001600160a01b031691506370a082319060240160206040518083038186803b15801561069857600080fd5b505afa1580156106ac573d6000803e3d6000fd5b505050506040513d601f19601f820116820180604052508101906106d091906108b2565b90508281116107125760405162461bcd60e51b815260206004820152600e60248201526d6e6f742070726f66697461626c6560901b604482015260640161011c565b5050505050505050565b6001600160a01b038116811461073157600080fd5b50565b60008060006060848603121561074957600080fd5b83356107548161071c565b925060208401356107648161071c565b929592945050506040919091013590565b60006020828403121561078757600080fd5b81356107928161071c565b9392505050565b60008083601f8401126107ab57600080fd5b50813567ffffffffffffffff8111156107c357600080fd5b6020830191508360208260061b85010111156107de57600080fd5b9250929050565b6000806000806000606086880312156107fd57600080fd5b85359450602086013567ffffffffffffffff8082111561081c57600080fd5b818801915088601f83011261083057600080fd5b81358181111561083f57600080fd5b8960208260051b850101111561085457600080fd5b60208301965080955050604088013591508082111561087257600080fd5b5061087f88828901610799565b969995985093965092949392505050565b6000602082840312156108a257600080fd5b8151801515811461079257600080fd5b6000602082840312156108c457600080fd5b5051919050565b634e487b7160e01b600052603260045260246000fd5b634e487b7160e01b600052601160045260246000fd5b600082821015610909576109096108e1565b500390565b60008219821115610921576109216108e1565b50019056fea26469706673582212200d251215735ca9ca68b8881acb0a9ed96259218225b93433e51bd8b053bd07ec64736f6c63430008090033",
  "devdoc": {
    "kind": "dev",
    "methods": {},
    "version": 1
  },
  "userdoc": {
    "kind": "user",
    "methods": {},
    "version": 1
  },
  "storageLayout": {
    "storage": [
      {
        "astId": 117,
        "contract": "contracts/BundleExecutor.sol:BundleExecutor",
        "label": "WETH",
        "offset": 0,
        "slot": "0",
        "type": "t_contract(IWETH)107"
      }
    ],
    "types": {
      "t_contract(IWETH)107": {
        "encoding": "inplace",
        "label": "contract IWETH",
        "numberOfBytes": "20"
      }
    }
  }
}